{
  "address": "0x495Bc113744A09187eB657207E4E9a487e5Ee43c",
  "abi": [
    {
      "inputs": [
        {
          "internalType": "address",
          "name": "_rewardsToken",
          "type": "address"
        },
        {
          "internalType": "address",
          "name": "_stakingToken",
          "type": "address"
        }
      ],
      "stateMutability": "nonpayable",
      "type": "constructor"
    },
    {
      "anonymous": false,
      "inputs": [
        {
          "indexed": true,
          "internalType": "address",
          "name": "previousOwner",
          "type": "address"
        },
        {
          "indexed": true,
          "internalType": "address",
          "name": "newOwner",
          "type": "address"
        }
      ],
      "name": "OwnershipTransferred",
      "type": "event"
    },
    {
      "anonymous": false,
      "inputs": [
        {
          "indexed": false,
          "internalType": "address",
          "name": "account",
          "type": "address"
        }
      ],
      "name": "Paused",
      "type": "event"
    },
    {
      "anonymous": false,
      "inputs": [
        {
          "indexed": true,
          "internalType": "address",
          "name": "account",
          "type": "address"
        },
        {
          "indexed": true,
          "internalType": "uint256",
          "name": "ammount",
          "type": "uint256"
        },
        {
          "indexed": true,
          "internalType": "uint256",
          "name": "timestamp",
          "type": "uint256"
        }
      ],
      "name": "Release",
      "type": "event"
    },
    {
      "anonymous": false,
      "inputs": [
        {
          "indexed": true,
          "internalType": "bytes32",
          "name": "role",
          "type": "bytes32"
        },
        {
          "indexed": true,
          "internalType": "bytes32",
          "name": "previousAdminRole",
          "type": "bytes32"
        },
        {
          "indexed": true,
          "internalType": "bytes32",
          "name": "newAdminRole",
          "type": "bytes32"
        }
      ],
      "name": "RoleAdminChanged",
      "type": "event"
    },
    {
      "anonymous": false,
      "inputs": [
        {
          "indexed": true,
          "internalType": "bytes32",
          "name": "role",
          "type": "bytes32"
        },
        {
          "indexed": true,
          "internalType": "address",
          "name": "account",
          "type": "address"
        },
        {
          "indexed": true,
          "internalType": "address",
          "name": "sender",
          "type": "address"
        }
      ],
      "name": "RoleGranted",
      "type": "event"
    },
    {
      "anonymous": false,
      "inputs": [
        {
          "indexed": true,
          "internalType": "bytes32",
          "name": "role",
          "type": "bytes32"
        },
        {
          "indexed": true,
          "internalType": "address",
          "name": "account",
          "type": "address"
        },
        {
          "indexed": true,
          "internalType": "address",
          "name": "sender",
          "type": "address"
        }
      ],
      "name": "RoleRevoked",
      "type": "event"
    },
    {
      "anonymous": false,
      "inputs": [
        {
          "indexed": false,
          "internalType": "address",
          "name": "account",
          "type": "address"
        }
      ],
      "name": "Unpaused",
      "type": "event"
    },
    {
      "inputs": [],
      "name": "DEFAULT_ADMIN_ROLE",
      "outputs": [
        {
          "internalType": "bytes32",
          "name": "",
          "type": "bytes32"
        }
      ],
      "stateMutability": "view",
      "type": "function"
    },
    {
      "inputs": [],
      "name": "PAUSER_ROLE",
      "outputs": [
        {
          "internalType": "bytes32",
          "name": "",
          "type": "bytes32"
        }
      ],
      "stateMutability": "view",
      "type": "function"
    },
    {
      "inputs": [],
      "name": "RELEASER_ROLE",
      "outputs": [
        {
          "internalType": "bytes32",
          "name": "",
          "type": "bytes32"
        }
      ],
      "stateMutability": "view",
      "type": "function"
    },
    {
      "inputs": [
        {
          "internalType": "bytes32",
          "name": "role",
          "type": "bytes32"
        }
      ],
      "name": "getRoleAdmin",
      "outputs": [
        {
          "internalType": "bytes32",
          "name": "",
          "type": "bytes32"
        }
      ],
      "stateMutability": "view",
      "type": "function"
    },
    {
      "inputs": [
        {
          "internalType": "bytes32",
          "name": "role",
          "type": "bytes32"
        },
        {
          "internalType": "address",
          "name": "account",
          "type": "address"
        }
      ],
      "name": "grantRole",
      "outputs": [],
      "stateMutability": "nonpayable",
      "type": "function"
    },
    {
      "inputs": [
        {
          "internalType": "bytes32",
          "name": "role",
          "type": "bytes32"
        },
        {
          "internalType": "address",
          "name": "account",
          "type": "address"
        }
      ],
      "name": "hasRole",
      "outputs": [
        {
          "internalType": "bool",
          "name": "",
          "type": "bool"
        }
      ],
      "stateMutability": "view",
      "type": "function"
    },
    {
      "inputs": [],
      "name": "owner",
      "outputs": [
        {
          "internalType": "address",
          "name": "",
          "type": "address"
        }
      ],
      "stateMutability": "view",
      "type": "function"
    },
    {
      "inputs": [],
      "name": "pause",
      "outputs": [],
      "stateMutability": "nonpayable",
      "type": "function"
    },
    {
      "inputs": [],
      "name": "paused",
      "outputs": [
        {
          "internalType": "bool",
          "name": "",
          "type": "bool"
        }
      ],
      "stateMutability": "view",
      "type": "function"
    },
    {
      "inputs": [
        {
          "internalType": "address[]",
          "name": "accounts",
          "type": "address[]"
        },
        {
          "internalType": "uint256",
          "name": "amount",
          "type": "uint256"
        }
      ],
      "name": "release",
      "outputs": [],
      "stateMutability": "nonpayable",
      "type": "function"
    },
    {
      "inputs": [],
      "name": "renounceOwnership",
      "outputs": [],
      "stateMutability": "nonpayable",
      "type": "function"
    },
    {
      "inputs": [
        {
          "internalType": "bytes32",
          "name": "role",
          "type": "bytes32"
        },
        {
          "internalType": "address",
          "name": "account",
          "type": "address"
        }
      ],
      "name": "renounceRole",
      "outputs": [],
      "stateMutability": "nonpayable",
      "type": "function"
    },
    {
      "inputs": [
        {
          "internalType": "bytes32",
          "name": "role",
          "type": "bytes32"
        },
        {
          "internalType": "address",
          "name": "account",
          "type": "address"
        }
      ],
      "name": "revokeRole",
      "outputs": [],
      "stateMutability": "nonpayable",
      "type": "function"
    },
    {
      "inputs": [],
      "name": "rewardsToken",
      "outputs": [
        {
          "internalType": "contract IERC20Mintable",
          "name": "",
          "type": "address"
        }
      ],
      "stateMutability": "view",
      "type": "function"
    },
    {
      "inputs": [
        {
          "internalType": "address",
          "name": "_rewardsToken",
          "type": "address"
        }
      ],
      "name": "setRewardsToken",
      "outputs": [],
      "stateMutability": "nonpayable",
      "type": "function"
    },
    {
      "inputs": [
        {
          "internalType": "address",
          "name": "_stakingToken",
          "type": "address"
        }
      ],
      "name": "setStakingToken",
      "outputs": [],
      "stateMutability": "nonpayable",
      "type": "function"
    },
    {
      "inputs": [],
      "name": "stakingToken",
      "outputs": [
        {
          "internalType": "contract IERC20",
          "name": "",
          "type": "address"
        }
      ],
      "stateMutability": "view",
      "type": "function"
    },
    {
      "inputs": [
        {
          "internalType": "bytes4",
          "name": "interfaceId",
          "type": "bytes4"
        }
      ],
      "name": "supportsInterface",
      "outputs": [
        {
          "internalType": "bool",
          "name": "",
          "type": "bool"
        }
      ],
      "stateMutability": "view",
      "type": "function"
    },
    {
      "inputs": [
        {
          "internalType": "address",
          "name": "newOwner",
          "type": "address"
        }
      ],
      "name": "transferOwnership",
      "outputs": [],
      "stateMutability": "nonpayable",
      "type": "function"
    },
    {
      "inputs": [],
      "name": "unpause",
      "outputs": [],
      "stateMutability": "nonpayable",
      "type": "function"
    }
  ],
  "transactionHash": "0x2cc387583159d129f13a9c7677b1ff0d4fa6155a76fc228f39757debaa9caa6d",
  "args": [
    "0xD766524bbAcA565b6e020D29e1e0CAE09D1f9e07",
    "0x045c842bB57587212113CB31daa763eaf9985907"
  ],
  "numDeployments": 2,
  "solcInputHash": "ac4968425211eb5bcdf226d6e37d05c6",
  "bytecode": "0x60806040523480156200001157600080fd5b50604051620024da380380620024da8339818101604052810190620000379190620003bc565b620000576200004b6200017c60201b60201c565b6200018460201b60201c565b600180819055506000600260006101000a81548160ff02191690831515021790555081600460006101000a81548173ffffffffffffffffffffffffffffffffffffffff021916908373ffffffffffffffffffffffffffffffffffffffff16021790555080600560006101000a81548173ffffffffffffffffffffffffffffffffffffffff021916908373ffffffffffffffffffffffffffffffffffffffff160217905550620001106000801b336200024860201b60201c565b620001427f65d7a28e3265b37a6474929f336521b332c1681b933f6cb9f3376673440d862a336200024860201b60201c565b620001747f88f3509f0e42391f2d94ebfb2a37cbd0782b1b8f73715330017f4663290b8117336200024860201b60201c565b50506200044b565b600033905090565b60008060009054906101000a900473ffffffffffffffffffffffffffffffffffffffff169050816000806101000a81548173ffffffffffffffffffffffffffffffffffffffff021916908373ffffffffffffffffffffffffffffffffffffffff1602179055508173ffffffffffffffffffffffffffffffffffffffff168173ffffffffffffffffffffffffffffffffffffffff167f8be0079c531659141344cd1fd0a4f28419497f9722a3daafe3b4186f6b6457e060405160405180910390a35050565b6200025a82826200033a60201b60201c565b620003365760016003600084815260200190815260200160002060000160008373ffffffffffffffffffffffffffffffffffffffff1673ffffffffffffffffffffffffffffffffffffffff16815260200190815260200160002060006101000a81548160ff021916908315150217905550620002db6200017c60201b60201c565b73ffffffffffffffffffffffffffffffffffffffff168173ffffffffffffffffffffffffffffffffffffffff16837f2f8788117e7eff1d82e926ec794901d17c78024a50270940304540a733656f0d60405160405180910390a45b5050565b60006003600084815260200190815260200160002060000160008373ffffffffffffffffffffffffffffffffffffffff1673ffffffffffffffffffffffffffffffffffffffff16815260200190815260200160002060009054906101000a900460ff16905092915050565b600081519050620003b68162000431565b92915050565b60008060408385031215620003d057600080fd5b6000620003e085828601620003a5565b9250506020620003f385828601620003a5565b9150509250929050565b60006200040a8262000411565b9050919050565b600073ffffffffffffffffffffffffffffffffffffffff82169050919050565b6200043c81620003fd565b81146200044857600080fd5b50565b61207f806200045b6000396000f3fe608060405234801561001057600080fd5b506004361061012c5760003560e01c80638456cb59116100ad578063d1af0c7d11610071578063d1af0c7d146102e5578063d547741f14610303578063de320cc11461031f578063e63ab1e91461033b578063f2fde38b146103595761012c565b80638456cb59146102515780638da5cb5b1461025b57806391d1485414610279578063a217fddf146102a9578063ac28af24146102c75761012c565b806336568abe116100f457806336568abe146101e55780633f4ba83a146102015780635c975abb1461020b578063715018a61461022957806372f702f3146102335761012c565b806301ffc9a7146101315780631e9b12ef14610161578063248a9ca31461017d5780632eba5a11146101ad5780632f2ff15d146101c9575b600080fd5b61014b600480360381019061014691906116bf565b610375565b604051610158919061198e565b60405180910390f35b61017b600480360381019061017691906115dd565b6103ef565b005b6101976004803603810190610192919061165a565b6104af565b6040516101a491906119a9565b60405180910390f35b6101c760048036038101906101c29190611606565b6104cf565b005b6101e360048036038101906101de9190611683565b610766565b005b6101ff60048036038101906101fa9190611683565b61078f565b005b610209610812565b005b61021361084f565b604051610220919061198e565b60405180910390f35b610231610866565b005b61023b6108ee565b60405161024891906119df565b60405180910390f35b610259610914565b005b610263610951565b604051610270919061194a565b60405180910390f35b610293600480360381019061028e9190611683565b61097a565b6040516102a0919061198e565b60405180910390f35b6102b16109e5565b6040516102be91906119a9565b60405180910390f35b6102cf6109ec565b6040516102dc91906119a9565b60405180910390f35b6102ed610a10565b6040516102fa91906119c4565b60405180910390f35b61031d60048036038101906103189190611683565b610a36565b005b610339600480360381019061033491906115dd565b610a5f565b005b610343610b1f565b60405161035091906119a9565b60405180910390f35b610373600480360381019061036e91906115dd565b610b43565b005b60007f7965db0b000000000000000000000000000000000000000000000000000000007bffffffffffffffffffffffffffffffffffffffffffffffffffffffff1916827bffffffffffffffffffffffffffffffffffffffffffffffffffffffff191614806103e857506103e782610c3b565b5b9050919050565b6103f7610ca5565b73ffffffffffffffffffffffffffffffffffffffff16610415610951565b73ffffffffffffffffffffffffffffffffffffffff161461046b576040517f08c379a000000000000000000000000000000000000000000000000000000000815260040161046290611a9c565b60405180910390fd5b80600560006101000a81548173ffffffffffffffffffffffffffffffffffffffff021916908373ffffffffffffffffffffffffffffffffffffffff16021790555050565b600060036000838152602001908152602001600020600101549050919050565b7f88f3509f0e42391f2d94ebfb2a37cbd0782b1b8f73715330017f4663290b8117610501816104fc610ca5565b610cad565b61050961084f565b15610549576040517f08c379a000000000000000000000000000000000000000000000000000000000815260040161054090611a7c565b60405180910390fd5b6002600154141561058f576040517f08c379a000000000000000000000000000000000000000000000000000000000815260040161058690611abc565b60405180910390fd5b600260018190555060005b8351811015610759576105ec8482815181106105df577f4e487b7100000000000000000000000000000000000000000000000000000000600052603260045260246000fd5b6020026020010151610d4a565b1561074657600460009054906101000a900473ffffffffffffffffffffffffffffffffffffffff1673ffffffffffffffffffffffffffffffffffffffff166340c10f19858381518110610668577f4e487b7100000000000000000000000000000000000000000000000000000000600052603260045260246000fd5b6020026020010151856040518363ffffffff1660e01b815260040161068e929190611965565b600060405180830381600087803b1580156106a857600080fd5b505af11580156106bc573d6000803e3d6000fd5b5050505042838583815181106106fb577f4e487b7100000000000000000000000000000000000000000000000000000000600052603260045260246000fd5b602002602001015173ffffffffffffffffffffffffffffffffffffffff167f2c57dec1db0095a6b800c2698d5bbceef2c180c6ac43429769a719658983f67760405160405180910390a45b808061075190611d78565b91505061059a565b5060018081905550505050565b61076f826104af565b6107808161077b610ca5565b610cad565b61078a8383610e18565b505050565b610797610ca5565b73ffffffffffffffffffffffffffffffffffffffff168173ffffffffffffffffffffffffffffffffffffffff1614610804576040517f08c379a00000000000000000000000000000000000000000000000000000000081526004016107fb90611adc565b60405180910390fd5b61080e8282610ef9565b5050565b7f65d7a28e3265b37a6474929f336521b332c1681b933f6cb9f3376673440d862a6108448161083f610ca5565b610cad565b61084c610fdb565b50565b6000600260009054906101000a900460ff16905090565b61086e610ca5565b73ffffffffffffffffffffffffffffffffffffffff1661088c610951565b73ffffffffffffffffffffffffffffffffffffffff16146108e2576040517f08c379a00000000000000000000000000000000000000000000000000000000081526004016108d990611a9c565b60405180910390fd5b6108ec600061107d565b565b600560009054906101000a900473ffffffffffffffffffffffffffffffffffffffff1681565b7f65d7a28e3265b37a6474929f336521b332c1681b933f6cb9f3376673440d862a61094681610941610ca5565b610cad565b61094e611141565b50565b60008060009054906101000a900473ffffffffffffffffffffffffffffffffffffffff16905090565b60006003600084815260200190815260200160002060000160008373ffffffffffffffffffffffffffffffffffffffff1673ffffffffffffffffffffffffffffffffffffffff16815260200190815260200160002060009054906101000a900460ff16905092915050565b6000801b81565b7f88f3509f0e42391f2d94ebfb2a37cbd0782b1b8f73715330017f4663290b811781565b600460009054906101000a900473ffffffffffffffffffffffffffffffffffffffff1681565b610a3f826104af565b610a5081610a4b610ca5565b610cad565b610a5a8383610ef9565b505050565b610a67610ca5565b73ffffffffffffffffffffffffffffffffffffffff16610a85610951565b73ffffffffffffffffffffffffffffffffffffffff1614610adb576040517f08c379a0000000000000000000000000000000000000000000000000000000008152600401610ad290611a9c565b60405180910390fd5b80600460006101000a81548173ffffffffffffffffffffffffffffffffffffffff021916908373ffffffffffffffffffffffffffffffffffffffff16021790555050565b7f65d7a28e3265b37a6474929f336521b332c1681b933f6cb9f3376673440d862a81565b610b4b610ca5565b73ffffffffffffffffffffffffffffffffffffffff16610b69610951565b73ffffffffffffffffffffffffffffffffffffffff1614610bbf576040517f08c379a0000000000000000000000000000000000000000000000000000000008152600401610bb690611a9c565b60405180910390fd5b600073ffffffffffffffffffffffffffffffffffffffff168173ffffffffffffffffffffffffffffffffffffffff161415610c2f576040517f08c379a0000000000000000000000000000000000000000000000000000000008152600401610c2690611a5c565b60405180910390fd5b610c388161107d565b50565b60007f01ffc9a7000000000000000000000000000000000000000000000000000000007bffffffffffffffffffffffffffffffffffffffffffffffffffffffff1916827bffffffffffffffffffffffffffffffffffffffffffffffffffffffff1916149050919050565b600033905090565b610cb7828261097a565b610d4657610cdc8173ffffffffffffffffffffffffffffffffffffffff1660146111e4565b610cea8360001c60206111e4565b604051602001610cfb929190611910565b6040516020818303038152906040526040517f08c379a0000000000000000000000000000000000000000000000000000000008152600401610d3d91906119fa565b60405180910390fd5b5050565b600080600560009054906101000a900473ffffffffffffffffffffffffffffffffffffffff1673ffffffffffffffffffffffffffffffffffffffff166370a08231846040518263ffffffff1660e01b8152600401610da8919061194a565b60206040518083038186803b158015610dc057600080fd5b505afa158015610dd4573d6000803e3d6000fd5b505050506040513d601f19601f82011682018060405250810190610df891906116e8565b90506000811415610e0d576000915050610e13565b60019150505b919050565b610e22828261097a565b610ef55760016003600084815260200190815260200160002060000160008373ffffffffffffffffffffffffffffffffffffffff1673ffffffffffffffffffffffffffffffffffffffff16815260200190815260200160002060006101000a81548160ff021916908315150217905550610e9a610ca5565b73ffffffffffffffffffffffffffffffffffffffff168173ffffffffffffffffffffffffffffffffffffffff16837f2f8788117e7eff1d82e926ec794901d17c78024a50270940304540a733656f0d60405160405180910390a45b5050565b610f03828261097a565b15610fd75760006003600084815260200190815260200160002060000160008373ffffffffffffffffffffffffffffffffffffffff1673ffffffffffffffffffffffffffffffffffffffff16815260200190815260200160002060006101000a81548160ff021916908315150217905550610f7c610ca5565b73ffffffffffffffffffffffffffffffffffffffff168173ffffffffffffffffffffffffffffffffffffffff16837ff6391f5c32d9c69d2a47ea670b442974b53935d1edc7fd64eb21e047a839171b60405160405180910390a45b5050565b610fe361084f565b611022576040517f08c379a000000000000000000000000000000000000000000000000000000000815260040161101990611a3c565b60405180910390fd5b6000600260006101000a81548160ff0219169083151502179055507f5db9ee0a495bf2e6ff9c91a7834c1ba4fdd244a5e8aa4e537bd38aeae4b073aa611066610ca5565b604051611073919061194a565b60405180910390a1565b60008060009054906101000a900473ffffffffffffffffffffffffffffffffffffffff169050816000806101000a81548173ffffffffffffffffffffffffffffffffffffffff021916908373ffffffffffffffffffffffffffffffffffffffff1602179055508173ffffffffffffffffffffffffffffffffffffffff168173ffffffffffffffffffffffffffffffffffffffff167f8be0079c531659141344cd1fd0a4f28419497f9722a3daafe3b4186f6b6457e060405160405180910390a35050565b61114961084f565b15611189576040517f08c379a000000000000000000000000000000000000000000000000000000000815260040161118090611a7c565b60405180910390fd5b6001600260006101000a81548160ff0219169083151502179055507f62e78cea01bee320cd4e420270b5ea74000d11b0c9f74754ebdbfc544b05a2586111cd610ca5565b6040516111da919061194a565b60405180910390a1565b6060600060028360026111f79190611bca565b6112019190611b74565b67ffffffffffffffff811115611240577f4e487b7100000000000000000000000000000000000000000000000000000000600052604160045260246000fd5b6040519080825280601f01601f1916602001820160405280156112725781602001600182028036833780820191505090505b5090507f3000000000000000000000000000000000000000000000000000000000000000816000815181106112d0577f4e487b7100000000000000000000000000000000000000000000000000000000600052603260045260246000fd5b60200101907effffffffffffffffffffffffffffffffffffffffffffffffffffffffffffff1916908160001a9053507f78000000000000000000000000000000000000000000000000000000000000008160018151811061135a577f4e487b7100000000000000000000000000000000000000000000000000000000600052603260045260246000fd5b60200101907effffffffffffffffffffffffffffffffffffffffffffffffffffffffffffff1916908160001a9053506000600184600261139a9190611bca565b6113a49190611b74565b90505b6001811115611490577f3031323334353637383961626364656600000000000000000000000000000000600f86166010811061140c577f4e487b7100000000000000000000000000000000000000000000000000000000600052603260045260246000fd5b1a60f81b828281518110611449577f4e487b7100000000000000000000000000000000000000000000000000000000600052603260045260246000fd5b60200101907effffffffffffffffffffffffffffffffffffffffffffffffffffffffffffff1916908160001a905350600485901c94508061148990611d1d565b90506113a7565b50600084146114d4576040517f08c379a00000000000000000000000000000000000000000000000000000000081526004016114cb90611a1c565b60405180910390fd5b8091505092915050565b60006114f16114ec84611b21565b611afc565b9050808382526020820190508285602086028201111561151057600080fd5b60005b858110156115405781611526888261154a565b845260208401935060208301925050600181019050611513565b5050509392505050565b60008135905061155981611fed565b92915050565b600082601f83011261157057600080fd5b81356115808482602086016114de565b91505092915050565b60008135905061159881612004565b92915050565b6000813590506115ad8161201b565b92915050565b6000813590506115c281612032565b92915050565b6000815190506115d781612032565b92915050565b6000602082840312156115ef57600080fd5b60006115fd8482850161154a565b91505092915050565b6000806040838503121561161957600080fd5b600083013567ffffffffffffffff81111561163357600080fd5b61163f8582860161155f565b9250506020611650858286016115b3565b9150509250929050565b60006020828403121561166c57600080fd5b600061167a84828501611589565b91505092915050565b6000806040838503121561169657600080fd5b60006116a485828601611589565b92505060206116b58582860161154a565b9150509250929050565b6000602082840312156116d157600080fd5b60006116df8482850161159e565b91505092915050565b6000602082840312156116fa57600080fd5b6000611708848285016115c8565b91505092915050565b61171a81611c24565b82525050565b61172981611c36565b82525050565b61173881611c42565b82525050565b61174781611ca2565b82525050565b61175681611cc6565b82525050565b600061176782611b4d565b6117718185611b58565b9350611781818560208601611cea565b61178a81611e1f565b840191505092915050565b60006117a082611b4d565b6117aa8185611b69565b93506117ba818560208601611cea565b80840191505092915050565b60006117d3602083611b58565b91506117de82611e30565b602082019050919050565b60006117f6601483611b58565b915061180182611e59565b602082019050919050565b6000611819602683611b58565b915061182482611e82565b604082019050919050565b600061183c601083611b58565b915061184782611ed1565b602082019050919050565b600061185f602083611b58565b915061186a82611efa565b602082019050919050565b6000611882601783611b69565b915061188d82611f23565b601782019050919050565b60006118a5601f83611b58565b91506118b082611f4c565b602082019050919050565b60006118c8601183611b69565b91506118d382611f75565b601182019050919050565b60006118eb602f83611b58565b91506118f682611f9e565b604082019050919050565b61190a81611c98565b82525050565b600061191b82611875565b91506119278285611795565b9150611932826118bb565b915061193e8284611795565b91508190509392505050565b600060208201905061195f6000830184611711565b92915050565b600060408201905061197a6000830185611711565b6119876020830184611901565b9392505050565b60006020820190506119a36000830184611720565b92915050565b60006020820190506119be600083018461172f565b92915050565b60006020820190506119d9600083018461173e565b92915050565b60006020820190506119f4600083018461174d565b92915050565b60006020820190508181036000830152611a14818461175c565b905092915050565b60006020820190508181036000830152611a35816117c6565b9050919050565b60006020820190508181036000830152611a55816117e9565b9050919050565b60006020820190508181036000830152611a758161180c565b9050919050565b60006020820190508181036000830152611a958161182f565b9050919050565b60006020820190508181036000830152611ab581611852565b9050919050565b60006020820190508181036000830152611ad581611898565b9050919050565b60006020820190508181036000830152611af5816118de565b9050919050565b6000611b06611b17565b9050611b128282611d47565b919050565b6000604051905090565b600067ffffffffffffffff821115611b3c57611b3b611df0565b5b602082029050602081019050919050565b600081519050919050565b600082825260208201905092915050565b600081905092915050565b6000611b7f82611c98565b9150611b8a83611c98565b9250827fffffffffffffffffffffffffffffffffffffffffffffffffffffffffffffffff03821115611bbf57611bbe611dc1565b5b828201905092915050565b6000611bd582611c98565b9150611be083611c98565b9250817fffffffffffffffffffffffffffffffffffffffffffffffffffffffffffffffff0483118215151615611c1957611c18611dc1565b5b828202905092915050565b6000611c2f82611c78565b9050919050565b60008115159050919050565b6000819050919050565b60007fffffffff0000000000000000000000000000000000000000000000000000000082169050919050565b600073ffffffffffffffffffffffffffffffffffffffff82169050919050565b6000819050919050565b6000611cad82611cb4565b9050919050565b6000611cbf82611c78565b9050919050565b6000611cd182611cd8565b9050919050565b6000611ce382611c78565b9050919050565b60005b83811015611d08578082015181840152602081019050611ced565b83811115611d17576000848401525b50505050565b6000611d2882611c98565b91506000821415611d3c57611d3b611dc1565b5b600182039050919050565b611d5082611e1f565b810181811067ffffffffffffffff82111715611d6f57611d6e611df0565b5b80604052505050565b6000611d8382611c98565b91507fffffffffffffffffffffffffffffffffffffffffffffffffffffffffffffffff821415611db657611db5611dc1565b5b600182019050919050565b7f4e487b7100000000000000000000000000000000000000000000000000000000600052601160045260246000fd5b7f4e487b7100000000000000000000000000000000000000000000000000000000600052604160045260246000fd5b6000601f19601f8301169050919050565b7f537472696e67733a20686578206c656e67746820696e73756666696369656e74600082015250565b7f5061757361626c653a206e6f7420706175736564000000000000000000000000600082015250565b7f4f776e61626c653a206e6577206f776e657220697320746865207a65726f206160008201527f6464726573730000000000000000000000000000000000000000000000000000602082015250565b7f5061757361626c653a2070617573656400000000000000000000000000000000600082015250565b7f4f776e61626c653a2063616c6c6572206973206e6f7420746865206f776e6572600082015250565b7f416363657373436f6e74726f6c3a206163636f756e7420000000000000000000600082015250565b7f5265656e7472616e637947756172643a207265656e7472616e742063616c6c00600082015250565b7f206973206d697373696e6720726f6c6520000000000000000000000000000000600082015250565b7f416363657373436f6e74726f6c3a2063616e206f6e6c792072656e6f756e636560008201527f20726f6c657320666f722073656c660000000000000000000000000000000000602082015250565b611ff681611c24565b811461200157600080fd5b50565b61200d81611c42565b811461201857600080fd5b50565b61202481611c4c565b811461202f57600080fd5b50565b61203b81611c98565b811461204657600080fd5b5056fea26469706673582212202f43c8ae9046c505778dd8bc76220072d8de48f0e77a541dc3fa94c84976d90664736f6c63430008040033",
  "devdoc": {
    "kind": "dev",
    "methods": {
      "getRoleAdmin(bytes32)": {
        "details": "Returns the admin role that controls `role`. See {grantRole} and {revokeRole}. To change a role's admin, use {_setRoleAdmin}."
      },
      "grantRole(bytes32,address)": {
        "details": "Grants `role` to `account`. If `account` had not been already granted `role`, emits a {RoleGranted} event. Requirements: - the caller must have ``role``'s admin role."
      },
      "hasRole(bytes32,address)": {
        "details": "Returns `true` if `account` has been granted `role`."
      },
      "owner()": {
        "details": "Returns the address of the current owner."
      },
      "paused()": {
        "details": "Returns true if the contract is paused, and false otherwise."
      },
      "renounceOwnership()": {
        "details": "Leaves the contract without owner. It will not be possible to call `onlyOwner` functions anymore. Can only be called by the current owner. NOTE: Renouncing ownership will leave the contract without an owner, thereby removing any functionality that is only available to the owner."
      },
      "renounceRole(bytes32,address)": {
        "details": "Revokes `role` from the calling account. Roles are often managed via {grantRole} and {revokeRole}: this function's purpose is to provide a mechanism for accounts to lose their privileges if they are compromised (such as when a trusted device is misplaced). If the calling account had been revoked `role`, emits a {RoleRevoked} event. Requirements: - the caller must be `account`."
      },
      "revokeRole(bytes32,address)": {
        "details": "Revokes `role` from `account`. If `account` had been granted `role`, emits a {RoleRevoked} event. Requirements: - the caller must have ``role``'s admin role."
      },
      "supportsInterface(bytes4)": {
        "details": "See {IERC165-supportsInterface}."
      },
      "transferOwnership(address)": {
        "details": "Transfers ownership of the contract to a new account (`newOwner`). Can only be called by the current owner."
      }
    },
    "version": 1
  },
  "userdoc": {
    "kind": "user",
    "methods": {},
    "version": 1
  },
  "storageLayout": {
    "storage": [
      {
        "astId": 539,
        "contract": "contracts/Distributor.sol:Distributor",
        "label": "_owner",
        "offset": 0,
        "slot": "0",
        "type": "t_address"
      },
      {
        "astId": 739,
        "contract": "contracts/Distributor.sol:Distributor",
        "label": "_status",
        "offset": 0,
        "slot": "1",
        "type": "t_uint256"
      },
      {
        "astId": 654,
        "contract": "contracts/Distributor.sol:Distributor",
        "label": "_paused",
        "offset": 0,
        "slot": "2",
        "type": "t_bool"
      },
      {
        "astId": 24,
        "contract": "contracts/Distributor.sol:Distributor",
        "label": "_roles",
        "offset": 0,
        "slot": "3",
        "type": "t_mapping(t_bytes32,t_struct(RoleData)19_storage)"
      },
      {
        "astId": 3391,
        "contract": "contracts/Distributor.sol:Distributor",
        "label": "rewardsToken",
        "offset": 0,
        "slot": "4",
        "type": "t_contract(IERC20Mintable)3370"
      },
      {
        "astId": 3394,
        "contract": "contracts/Distributor.sol:Distributor",
        "label": "stakingToken",
        "offset": 0,
        "slot": "5",
        "type": "t_contract(IERC20)1392"
      }
    ],
    "types": {
      "t_address": {
        "encoding": "inplace",
        "label": "address",
        "numberOfBytes": "20"
      },
      "t_bool": {
        "encoding": "inplace",
        "label": "bool",
        "numberOfBytes": "1"
      },
      "t_bytes32": {
        "encoding": "inplace",
        "label": "bytes32",
        "numberOfBytes": "32"
      },
      "t_contract(IERC20)1392": {
        "encoding": "inplace",
        "label": "contract IERC20",
        "numberOfBytes": "20"
      },
      "t_contract(IERC20Mintable)3370": {
        "encoding": "inplace",
        "label": "contract IERC20Mintable",
        "numberOfBytes": "20"
      },
      "t_mapping(t_address,t_bool)": {
        "encoding": "mapping",
        "key": "t_address",
        "label": "mapping(address => bool)",
        "numberOfBytes": "32",
        "value": "t_bool"
      },
      "t_mapping(t_bytes32,t_struct(RoleData)19_storage)": {
        "encoding": "mapping",
        "key": "t_bytes32",
        "label": "mapping(bytes32 => struct AccessControl.RoleData)",
        "numberOfBytes": "32",
        "value": "t_struct(RoleData)19_storage"
      },
      "t_struct(RoleData)19_storage": {
        "encoding": "inplace",
        "label": "struct AccessControl.RoleData",
        "members": [
          {
            "astId": 16,
            "contract": "contracts/Distributor.sol:Distributor",
            "label": "members",
            "offset": 0,
            "slot": "0",
            "type": "t_mapping(t_address,t_bool)"
          },
          {
            "astId": 18,
            "contract": "contracts/Distributor.sol:Distributor",
            "label": "adminRole",
            "offset": 0,
            "slot": "1",
            "type": "t_bytes32"
          }
        ],
        "numberOfBytes": "64"
      },
      "t_uint256": {
        "encoding": "inplace",
        "label": "uint256",
        "numberOfBytes": "32"
      }
    }
  }
}