{
  "address": "0xCfBB4183702A5ff4e9d08b7382FcF11575396263",
  "abi": [
    {
      "inputs": [
        {
          "internalType": "address",
          "name": "_rewardsToken",
          "type": "address"
        },
        {
          "internalType": "address",
          "name": "_stakingToken",
          "type": "address"
        },
        {
          "internalType": "bytes32",
          "name": "_merkleRoot",
          "type": "bytes32"
        }
      ],
      "stateMutability": "nonpayable",
      "type": "constructor"
    },
    {
      "inputs": [],
      "name": "AlreadyClaimed",
      "type": "error"
    },
    {
      "inputs": [],
      "name": "NotInMerkle",
      "type": "error"
    },
    {
      "anonymous": false,
      "inputs": [
        {
          "indexed": true,
          "internalType": "address",
          "name": "account",
          "type": "address"
        },
        {
          "indexed": true,
          "internalType": "uint256",
          "name": "ammount",
          "type": "uint256"
        },
        {
          "indexed": true,
          "internalType": "uint256",
          "name": "timestamp",
          "type": "uint256"
        }
      ],
      "name": "Harvest",
      "type": "event"
    },
    {
      "anonymous": false,
      "inputs": [
        {
          "indexed": true,
          "internalType": "address",
          "name": "to",
          "type": "address"
        },
        {
          "indexed": false,
          "internalType": "uint256",
          "name": "amount",
          "type": "uint256"
        }
      ],
      "name": "InitialClaim",
      "type": "event"
    },
    {
      "anonymous": false,
      "inputs": [
        {
          "indexed": true,
          "internalType": "address",
          "name": "previousOwner",
          "type": "address"
        },
        {
          "indexed": true,
          "internalType": "address",
          "name": "newOwner",
          "type": "address"
        }
      ],
      "name": "OwnershipTransferred",
      "type": "event"
    },
    {
      "anonymous": false,
      "inputs": [
        {
          "indexed": false,
          "internalType": "address",
          "name": "account",
          "type": "address"
        }
      ],
      "name": "Paused",
      "type": "event"
    },
    {
      "anonymous": false,
      "inputs": [
        {
          "indexed": false,
          "internalType": "address",
          "name": "account",
          "type": "address"
        }
      ],
      "name": "Unpaused",
      "type": "event"
    },
    {
      "inputs": [],
      "name": "DENOMINATOR",
      "outputs": [
        {
          "internalType": "uint256",
          "name": "",
          "type": "uint256"
        }
      ],
      "stateMutability": "view",
      "type": "function"
    },
    {
      "inputs": [],
      "name": "claim",
      "outputs": [],
      "stateMutability": "nonpayable",
      "type": "function"
    },
    {
      "inputs": [],
      "name": "claimAmount",
      "outputs": [
        {
          "internalType": "uint256",
          "name": "",
          "type": "uint256"
        }
      ],
      "stateMutability": "view",
      "type": "function"
    },
    {
      "inputs": [],
      "name": "claimBonusCeiling",
      "outputs": [
        {
          "internalType": "uint256",
          "name": "",
          "type": "uint256"
        }
      ],
      "stateMutability": "view",
      "type": "function"
    },
    {
      "inputs": [],
      "name": "claimBonusNumerator",
      "outputs": [
        {
          "internalType": "uint256",
          "name": "",
          "type": "uint256"
        }
      ],
      "stateMutability": "view",
      "type": "function"
    },
    {
      "inputs": [],
      "name": "claimInterval",
      "outputs": [
        {
          "internalType": "uint256",
          "name": "",
          "type": "uint256"
        }
      ],
      "stateMutability": "view",
      "type": "function"
    },
    {
      "inputs": [
        {
          "internalType": "address",
          "name": "account",
          "type": "address"
        }
      ],
      "name": "getAmount",
      "outputs": [
        {
          "internalType": "uint256",
          "name": "",
          "type": "uint256"
        }
      ],
      "stateMutability": "view",
      "type": "function"
    },
    {
      "inputs": [
        {
          "internalType": "address",
          "name": "",
          "type": "address"
        }
      ],
      "name": "hasInitialClaimed",
      "outputs": [
        {
          "internalType": "bool",
          "name": "",
          "type": "bool"
        }
      ],
      "stateMutability": "view",
      "type": "function"
    },
    {
      "inputs": [
        {
          "internalType": "address",
          "name": "to",
          "type": "address"
        },
        {
          "internalType": "uint256",
          "name": "amount",
          "type": "uint256"
        },
        {
          "internalType": "bytes32[]",
          "name": "proof",
          "type": "bytes32[]"
        }
      ],
      "name": "initialClaim",
      "outputs": [],
      "stateMutability": "nonpayable",
      "type": "function"
    },
    {
      "inputs": [
        {
          "internalType": "address",
          "name": "account",
          "type": "address"
        }
      ],
      "name": "isEligble",
      "outputs": [
        {
          "internalType": "bool",
          "name": "",
          "type": "bool"
        }
      ],
      "stateMutability": "view",
      "type": "function"
    },
    {
      "inputs": [
        {
          "internalType": "address",
          "name": "",
          "type": "address"
        }
      ],
      "name": "lastClaimed",
      "outputs": [
        {
          "internalType": "uint256",
          "name": "",
          "type": "uint256"
        }
      ],
      "stateMutability": "view",
      "type": "function"
    },
    {
      "inputs": [],
      "name": "merkleRoot",
      "outputs": [
        {
          "internalType": "bytes32",
          "name": "",
          "type": "bytes32"
        }
      ],
      "stateMutability": "view",
      "type": "function"
    },
    {
      "inputs": [],
      "name": "owner",
      "outputs": [
        {
          "internalType": "address",
          "name": "",
          "type": "address"
        }
      ],
      "stateMutability": "view",
      "type": "function"
    },
    {
      "inputs": [],
      "name": "pause",
      "outputs": [],
      "stateMutability": "nonpayable",
      "type": "function"
    },
    {
      "inputs": [],
      "name": "paused",
      "outputs": [
        {
          "internalType": "bool",
          "name": "",
          "type": "bool"
        }
      ],
      "stateMutability": "view",
      "type": "function"
    },
    {
      "inputs": [],
      "name": "renounceOwnership",
      "outputs": [],
      "stateMutability": "nonpayable",
      "type": "function"
    },
    {
      "inputs": [],
      "name": "rewardsToken",
      "outputs": [
        {
          "internalType": "contract IERC20Mintable",
          "name": "",
          "type": "address"
        }
      ],
      "stateMutability": "view",
      "type": "function"
    },
    {
      "inputs": [
        {
          "internalType": "uint256",
          "name": "_claimAmount",
          "type": "uint256"
        }
      ],
      "name": "setClaimAmount",
      "outputs": [],
      "stateMutability": "nonpayable",
      "type": "function"
    },
    {
      "inputs": [
        {
          "internalType": "uint256",
          "name": "_claimBonusCeiling",
          "type": "uint256"
        }
      ],
      "name": "setClaimBonusCeiling",
      "outputs": [],
      "stateMutability": "nonpayable",
      "type": "function"
    },
    {
      "inputs": [
        {
          "internalType": "uint256",
          "name": "_claimBonusNumerator",
          "type": "uint256"
        }
      ],
      "name": "setClaimBonusNumerator",
      "outputs": [],
      "stateMutability": "nonpayable",
      "type": "function"
    },
    {
      "inputs": [
        {
          "internalType": "uint256",
          "name": "_claimInterval",
          "type": "uint256"
        }
      ],
      "name": "setClaimInterval",
      "outputs": [],
      "stateMutability": "nonpayable",
      "type": "function"
    },
    {
      "inputs": [
        {
          "internalType": "address",
          "name": "_rewardsToken",
          "type": "address"
        }
      ],
      "name": "setRewardsToken",
      "outputs": [],
      "stateMutability": "nonpayable",
      "type": "function"
    },
    {
      "inputs": [
        {
          "internalType": "address",
          "name": "_stakingToken",
          "type": "address"
        }
      ],
      "name": "setStakingToken",
      "outputs": [],
      "stateMutability": "nonpayable",
      "type": "function"
    },
    {
      "inputs": [
        {
          "internalType": "uint256",
          "name": "_stakingTokenDecimals",
          "type": "uint256"
        }
      ],
      "name": "setStakingTokenDecimals",
      "outputs": [],
      "stateMutability": "nonpayable",
      "type": "function"
    },
    {
      "inputs": [],
      "name": "stakingToken",
      "outputs": [
        {
          "internalType": "contract IERC20",
          "name": "",
          "type": "address"
        }
      ],
      "stateMutability": "view",
      "type": "function"
    },
    {
      "inputs": [],
      "name": "stakingTokenDecimals",
      "outputs": [
        {
          "internalType": "uint256",
          "name": "",
          "type": "uint256"
        }
      ],
      "stateMutability": "view",
      "type": "function"
    },
    {
      "inputs": [
        {
          "internalType": "address",
          "name": "newOwner",
          "type": "address"
        }
      ],
      "name": "transferOwnership",
      "outputs": [],
      "stateMutability": "nonpayable",
      "type": "function"
    },
    {
      "inputs": [],
      "name": "unpause",
      "outputs": [],
      "stateMutability": "nonpayable",
      "type": "function"
    }
  ],
  "transactionHash": "0x03dd49a3fe1b87c07787c610af862e768529e3f195445810d9c4ce14b69fa0de",
  "args": [
    "0x5a351A3b5f65eBA610b52Dbd4bd70E1D4716ccE1",
    "0x89f52002e544585b42f8c7cf557609ca4c8ce12a",
    "0x381e10f5a50fb62ac43c23bd759c694568a88aabd498a41dcd63a4710d8297ef"
  ],
  "numDeployments": 2,
  "solcInputHash": "c8a5799e8ec267fdb814a4b7a6e79607",
  "bytecode": "0x60a0604052620151806004556804563918244f4000006005556014600655680410d586a20a4c0000600755633b9aca006008553480156200003f57600080fd5b506040516200250038038062002500833981810160405281019062000065919062000234565b62000085620000796200013a60201b60201c565b6200014260201b60201c565b600180819055506000600260006101000a81548160ff02191690831515021790555082600260016101000a81548173ffffffffffffffffffffffffffffffffffffffff021916908373ffffffffffffffffffffffffffffffffffffffff16021790555081600360006101000a81548173ffffffffffffffffffffffffffffffffffffffff021916908373ffffffffffffffffffffffffffffffffffffffff1602179055508060808181525050505050620002fc565b600033905090565b60008060009054906101000a900473ffffffffffffffffffffffffffffffffffffffff169050816000806101000a81548173ffffffffffffffffffffffffffffffffffffffff021916908373ffffffffffffffffffffffffffffffffffffffff1602179055508173ffffffffffffffffffffffffffffffffffffffff168173ffffffffffffffffffffffffffffffffffffffff167f8be0079c531659141344cd1fd0a4f28419497f9722a3daafe3b4186f6b6457e060405160405180910390a35050565b6000815190506200021781620002c8565b92915050565b6000815190506200022e81620002e2565b92915050565b6000806000606084860312156200024a57600080fd5b60006200025a8682870162000206565b93505060206200026d8682870162000206565b925050604062000280868287016200021d565b9150509250925092565b60006200029782620002a8565b9050919050565b6000819050919050565b600073ffffffffffffffffffffffffffffffffffffffff82169050919050565b620002d3816200028a565b8114620002df57600080fd5b50565b620002ed816200029e565b8114620002f957600080fd5b50565b6080516121e16200031f6000396000818161073b0152610d0001526121e16000f3fe608060405234801561001057600080fd5b50600436106101c45760003560e01c8063830953ab116100f9578063b9f7a7b511610097578063e7156d3211610071578063e7156d3214610473578063f2d57adf1461048f578063f2fde38b146104ab578063f5a79767146104c7576101c4565b8063b9f7a7b51461041b578063d1af0c7d14610439578063de320cc114610457576101c4565b8063918f8674116100d3578063918f8674146103a7578063afbb8556146103c5578063b1c7ef0c146103e1578063b73ece25146103fd576101c4565b8063830953ab146103615780638456cb591461037f5780638da5cb5b14610389576101c4565b80632eb4a7ab116101665780634fc5a3ee116101405780634fc5a3ee146102fd5780635c975abb1461031b578063715018a61461033957806372f702f314610343576101c4565b80632eb4a7ab146102cb5780633f4ba83a146102e95780634e71d92d146102f3576101c4565b80631e9b12ef116101a25780631e9b12ef1461024757806321d767e014610263578063269a9b901461027f5780632b5ee1951461029b576101c4565b8063013eba92146101c95780630b433a12146101f95780631347f29314610217575b600080fd5b6101e360048036038101906101de9190611856565b6104f7565b6040516101f09190611cfc565b60405180910390f35b61020161050f565b60405161020e9190611cfc565b60405180910390f35b610231600480360381019061022c9190611856565b610515565b60405161023e9190611b90565b60405180910390f35b610261600480360381019061025c9190611856565b610535565b005b61027d600480360381019061027891906118eb565b6105f5565b005b610299600480360381019061029491906118eb565b61067b565b005b6102b560048036038101906102b09190611856565b610701565b6040516102c29190611b90565b60405180910390f35b6102d3610739565b6040516102e09190611bab565b60405180910390f35b6102f161075d565b005b6102fb6107e3565b005b610305610a80565b6040516103129190611cfc565b60405180910390f35b610323610a86565b6040516103309190611b90565b60405180910390f35b610341610a9d565b005b61034b610b25565b6040516103589190611be1565b60405180910390f35b610369610b4b565b6040516103769190611cfc565b60405180910390f35b610387610b51565b005b610391610bd7565b60405161039e9190611b4c565b60405180910390f35b6103af610c00565b6040516103bc9190611cfc565b60405180910390f35b6103df60048036038101906103da919061187f565b610c06565b005b6103fb60048036038101906103f691906118eb565b610e9b565b005b610405610f21565b6040516104129190611cfc565b60405180910390f35b610423610f27565b6040516104309190611cfc565b60405180910390f35b610441610f2d565b60405161044e9190611bc6565b60405180910390f35b610471600480360381019061046c9190611856565b610f53565b005b61048d600480360381019061048891906118eb565b611013565b005b6104a960048036038101906104a491906118eb565b611099565b005b6104c560048036038101906104c09190611856565b61111f565b005b6104e160048036038101906104dc9190611856565b611217565b6040516104ee9190611cfc565b60405180910390f35b600a6020528060005260406000206000915090505481565b60045481565b60096020528060005260406000206000915054906101000a900460ff1681565b61053d611229565b73ffffffffffffffffffffffffffffffffffffffff1661055b610bd7565b73ffffffffffffffffffffffffffffffffffffffff16146105b1576040517f08c379a00000000000000000000000000000000000000000000000000000000081526004016105a890611c7c565b60405180910390fd5b80600360006101000a81548173ffffffffffffffffffffffffffffffffffffffff021916908373ffffffffffffffffffffffffffffffffffffffff16021790555050565b6105fd611229565b73ffffffffffffffffffffffffffffffffffffffff1661061b610bd7565b73ffffffffffffffffffffffffffffffffffffffff1614610671576040517f08c379a000000000000000000000000000000000000000000000000000000000815260040161066890611c7c565b60405180910390fd5b8060068190555050565b610683611229565b73ffffffffffffffffffffffffffffffffffffffff166106a1610bd7565b73ffffffffffffffffffffffffffffffffffffffff16146106f7576040517f08c379a00000000000000000000000000000000000000000000000000000000081526004016106ee90611c7c565b60405180910390fd5b8060078190555050565b600061070c82611231565b6107195760009050610734565b610722826112ff565b61072f5760009050610734565b600190505b919050565b7f000000000000000000000000000000000000000000000000000000000000000081565b610765611229565b73ffffffffffffffffffffffffffffffffffffffff16610783610bd7565b73ffffffffffffffffffffffffffffffffffffffff16146107d9576040517f08c379a00000000000000000000000000000000000000000000000000000000081526004016107d090611c7c565b60405180910390fd5b6107e1611368565b565b6107eb610a86565b1561082b576040517f08c379a000000000000000000000000000000000000000000000000000000000815260040161082290611c5c565b60405180910390fd5b60026001541415610871576040517f08c379a000000000000000000000000000000000000000000000000000000000815260040161086890611cdc565b60405180910390fd5b600260018190555061088233611231565b6108c1576040517f08c379a00000000000000000000000000000000000000000000000000000000081526004016108b890611cbc565b60405180910390fd5b6108ca336112ff565b610909576040517f08c379a000000000000000000000000000000000000000000000000000000000815260040161090090611c9c565b60405180910390fd5b61091233610701565b610951576040517f08c379a000000000000000000000000000000000000000000000000000000000815260040161094890611c3c565b60405180910390fd5b600061095c3361140a565b9050600260019054906101000a900473ffffffffffffffffffffffffffffffffffffffff1673ffffffffffffffffffffffffffffffffffffffff166340c10f1933836040518363ffffffff1660e01b81526004016109bb929190611b67565b600060405180830381600087803b1580156109d557600080fd5b505af11580156109e9573d6000803e3d6000fd5b5050505042600a60003373ffffffffffffffffffffffffffffffffffffffff1673ffffffffffffffffffffffffffffffffffffffff1681526020019081526020016000208190555042813373ffffffffffffffffffffffffffffffffffffffff167f71bab65ced2e5750775a0613be067df48ef06cf92a496ebf7663ae066092495460405160405180910390a45060018081905550565b60075481565b6000600260009054906101000a900460ff16905090565b610aa5611229565b73ffffffffffffffffffffffffffffffffffffffff16610ac3610bd7565b73ffffffffffffffffffffffffffffffffffffffff1614610b19576040517f08c379a0000000000000000000000000000000000000000000000000000000008152600401610b1090611c7c565b60405180910390fd5b610b236000611576565b565b600360009054906101000a900473ffffffffffffffffffffffffffffffffffffffff1681565b60055481565b610b59611229565b73ffffffffffffffffffffffffffffffffffffffff16610b77610bd7565b73ffffffffffffffffffffffffffffffffffffffff1614610bcd576040517f08c379a0000000000000000000000000000000000000000000000000000000008152600401610bc490611c7c565b60405180910390fd5b610bd561163a565b565b60008060009054906101000a900473ffffffffffffffffffffffffffffffffffffffff16905090565b61271081565b600960008573ffffffffffffffffffffffffffffffffffffffff1673ffffffffffffffffffffffffffffffffffffffff16815260200190815260200160002060009054906101000a900460ff1615610c8a576040517f646cf55800000000000000000000000000000000000000000000000000000000815260040160405180910390fd5b60008484604051602001610c9f929190611af4565b6040516020818303038152906040528051906020012090506000610d25848480806020026020016040519081016040528093929190818152602001838360200280828437600081840152601f19601f820116905080830192505050505050507f0000000000000000000000000000000000000000000000000000000000000000846116dd565b905080610d5e576040517f8a585be200000000000000000000000000000000000000000000000000000000815260040160405180910390fd5b6001600960008873ffffffffffffffffffffffffffffffffffffffff1673ffffffffffffffffffffffffffffffffffffffff16815260200190815260200160002060006101000a81548160ff021916908315150217905550600260019054906101000a900473ffffffffffffffffffffffffffffffffffffffff1673ffffffffffffffffffffffffffffffffffffffff166340c10f1987876040518363ffffffff1660e01b8152600401610e13929190611b67565b600060405180830381600087803b158015610e2d57600080fd5b505af1158015610e41573d6000803e3d6000fd5b505050508573ffffffffffffffffffffffffffffffffffffffff167f162588ac7175082a48845466bc2fc9f7c2f9219c9660a2d3788cae020492d93d86604051610e8b9190611cfc565b60405180910390a2505050505050565b610ea3611229565b73ffffffffffffffffffffffffffffffffffffffff16610ec1610bd7565b73ffffffffffffffffffffffffffffffffffffffff1614610f17576040517f08c379a0000000000000000000000000000000000000000000000000000000008152600401610f0e90611c7c565b60405180910390fd5b8060058190555050565b60065481565b60085481565b600260019054906101000a900473ffffffffffffffffffffffffffffffffffffffff1681565b610f5b611229565b73ffffffffffffffffffffffffffffffffffffffff16610f79610bd7565b73ffffffffffffffffffffffffffffffffffffffff1614610fcf576040517f08c379a0000000000000000000000000000000000000000000000000000000008152600401610fc690611c7c565b60405180910390fd5b80600260016101000a81548173ffffffffffffffffffffffffffffffffffffffff021916908373ffffffffffffffffffffffffffffffffffffffff16021790555050565b61101b611229565b73ffffffffffffffffffffffffffffffffffffffff16611039610bd7565b73ffffffffffffffffffffffffffffffffffffffff161461108f576040517f08c379a000000000000000000000000000000000000000000000000000000000815260040161108690611c7c565b60405180910390fd5b8060088190555050565b6110a1611229565b73ffffffffffffffffffffffffffffffffffffffff166110bf610bd7565b73ffffffffffffffffffffffffffffffffffffffff1614611115576040517f08c379a000000000000000000000000000000000000000000000000000000000815260040161110c90611c7c565b60405180910390fd5b8060048190555050565b611127611229565b73ffffffffffffffffffffffffffffffffffffffff16611145610bd7565b73ffffffffffffffffffffffffffffffffffffffff161461119b576040517f08c379a000000000000000000000000000000000000000000000000000000000815260040161119290611c7c565b60405180910390fd5b600073ffffffffffffffffffffffffffffffffffffffff168173ffffffffffffffffffffffffffffffffffffffff16141561120b576040517f08c379a000000000000000000000000000000000000000000000000000000000815260040161120290611c1c565b60405180910390fd5b61121481611576565b50565b60006112228261140a565b9050919050565b600033905090565b600080600360009054906101000a900473ffffffffffffffffffffffffffffffffffffffff1673ffffffffffffffffffffffffffffffffffffffff166370a08231846040518263ffffffff1660e01b815260040161128f9190611b4c565b60206040518083038186803b1580156112a757600080fd5b505afa1580156112bb573d6000803e3d6000fd5b505050506040513d601f19601f820116820180604052508101906112df9190611914565b905060008114156112f45760009150506112fa565b60019150505b919050565b6000600454600a60008473ffffffffffffffffffffffffffffffffffffffff1673ffffffffffffffffffffffffffffffffffffffff168152602001908152602001600020544261134f9190611e09565b101561135e5760009050611363565b600190505b919050565b611370610a86565b6113af576040517f08c379a00000000000000000000000000000000000000000000000000000000081526004016113a690611bfc565b60405180910390fd5b6000600260006101000a81548160ff0219169083151502179055507f5db9ee0a495bf2e6ff9c91a7834c1ba4fdd244a5e8aa4e537bd38aeae4b073aa6113f3611229565b6040516114009190611b4c565b60405180910390a1565b600080600360009054906101000a900473ffffffffffffffffffffffffffffffffffffffff1673ffffffffffffffffffffffffffffffffffffffff166370a08231846040518263ffffffff1660e01b81526004016114689190611b4c565b60206040518083038186803b15801561148057600080fd5b505afa158015611494573d6000803e3d6000fd5b505050506040513d601f19601f820116820180604052508101906114b89190611914565b9050600854811061155757670de0b6b3a7640000600854146114e557600854816114e29190611daf565b90505b60008190506007548211156114fa5760075490505b6000670de0b6b3a7640000612710600654846115169190611daf565b6115209190611d7e565b61152a9190611d28565b9050670de0b6b3a7640000600554826115439190611daf565b61154d9190611d7e565b9350505050611571565b600081111561156b57600554915050611571565b60009150505b919050565b60008060009054906101000a900473ffffffffffffffffffffffffffffffffffffffff169050816000806101000a81548173ffffffffffffffffffffffffffffffffffffffff021916908373ffffffffffffffffffffffffffffffffffffffff1602179055508173ffffffffffffffffffffffffffffffffffffffff168173ffffffffffffffffffffffffffffffffffffffff167f8be0079c531659141344cd1fd0a4f28419497f9722a3daafe3b4186f6b6457e060405160405180910390a35050565b611642610a86565b15611682576040517f08c379a000000000000000000000000000000000000000000000000000000000815260040161167990611c5c565b60405180910390fd5b6001600260006101000a81548160ff0219169083151502179055507f62e78cea01bee320cd4e420270b5ea74000d11b0c9f74754ebdbfc544b05a2586116c6611229565b6040516116d39190611b4c565b60405180910390a1565b6000826116ea85846116f4565b1490509392505050565b60008082905060005b84518110156117c2576000858281518110611741577f4e487b7100000000000000000000000000000000000000000000000000000000600052603260045260246000fd5b60200260200101519050808311611782578281604051602001611765929190611b20565b6040516020818303038152906040528051906020012092506117ae565b8083604051602001611795929190611b20565b6040516020818303038152906040528051906020012092505b5080806117ba90611ed7565b9150506116fd565b508091505092915050565b6000813590506117dc8161217d565b92915050565b60008083601f8401126117f457600080fd5b8235905067ffffffffffffffff81111561180d57600080fd5b60208301915083602082028301111561182557600080fd5b9250929050565b60008135905061183b81612194565b92915050565b60008151905061185081612194565b92915050565b60006020828403121561186857600080fd5b6000611876848285016117cd565b91505092915050565b6000806000806060858703121561189557600080fd5b60006118a3878288016117cd565b94505060206118b48782880161182c565b935050604085013567ffffffffffffffff8111156118d157600080fd5b6118dd878288016117e2565b925092505092959194509250565b6000602082840312156118fd57600080fd5b600061190b8482850161182c565b91505092915050565b60006020828403121561192657600080fd5b600061193484828501611841565b91505092915050565b61194681611e3d565b82525050565b61195d61195882611e3d565b611f20565b82525050565b61196c81611e4f565b82525050565b61197b81611e5b565b82525050565b61199261198d82611e5b565b611f32565b82525050565b6119a181611e8f565b82525050565b6119b081611eb3565b82525050565b60006119c3601483611d17565b91506119ce82611fc3565b602082019050919050565b60006119e6602683611d17565b91506119f182611fec565b604082019050919050565b6000611a09601e83611d17565b9150611a148261203b565b602082019050919050565b6000611a2c601083611d17565b9150611a3782612064565b602082019050919050565b6000611a4f602083611d17565b9150611a5a8261208d565b602082019050919050565b6000611a72602483611d17565b9150611a7d826120b6565b604082019050919050565b6000611a95602d83611d17565b9150611aa082612105565b604082019050919050565b6000611ab8601f83611d17565b9150611ac382612154565b602082019050919050565b611ad781611e85565b82525050565b611aee611ae982611e85565b611f4e565b82525050565b6000611b00828561194c565b601482019150611b108284611add565b6020820191508190509392505050565b6000611b2c8285611981565b602082019150611b3c8284611981565b6020820191508190509392505050565b6000602082019050611b61600083018461193d565b92915050565b6000604082019050611b7c600083018561193d565b611b896020830184611ace565b9392505050565b6000602082019050611ba56000830184611963565b92915050565b6000602082019050611bc06000830184611972565b92915050565b6000602082019050611bdb6000830184611998565b92915050565b6000602082019050611bf660008301846119a7565b92915050565b60006020820190508181036000830152611c15816119b6565b9050919050565b60006020820190508181036000830152611c35816119d9565b9050919050565b60006020820190508181036000830152611c55816119fc565b9050919050565b60006020820190508181036000830152611c7581611a1f565b9050919050565b60006020820190508181036000830152611c9581611a42565b9050919050565b60006020820190508181036000830152611cb581611a65565b9050919050565b60006020820190508181036000830152611cd581611a88565b9050919050565b60006020820190508181036000830152611cf581611aab565b9050919050565b6000602082019050611d116000830184611ace565b92915050565b600082825260208201905092915050565b6000611d3382611e85565b9150611d3e83611e85565b9250827fffffffffffffffffffffffffffffffffffffffffffffffffffffffffffffffff03821115611d7357611d72611f58565b5b828201905092915050565b6000611d8982611e85565b9150611d9483611e85565b925082611da457611da3611f87565b5b828204905092915050565b6000611dba82611e85565b9150611dc583611e85565b9250817fffffffffffffffffffffffffffffffffffffffffffffffffffffffffffffffff0483118215151615611dfe57611dfd611f58565b5b828202905092915050565b6000611e1482611e85565b9150611e1f83611e85565b925082821015611e3257611e31611f58565b5b828203905092915050565b6000611e4882611e65565b9050919050565b60008115159050919050565b6000819050919050565b600073ffffffffffffffffffffffffffffffffffffffff82169050919050565b6000819050919050565b6000611e9a82611ea1565b9050919050565b6000611eac82611e65565b9050919050565b6000611ebe82611ec5565b9050919050565b6000611ed082611e65565b9050919050565b6000611ee282611e85565b91507fffffffffffffffffffffffffffffffffffffffffffffffffffffffffffffffff821415611f1557611f14611f58565b5b600182019050919050565b6000611f2b82611f3c565b9050919050565b6000819050919050565b6000611f4782611fb6565b9050919050565b6000819050919050565b7f4e487b7100000000000000000000000000000000000000000000000000000000600052601160045260246000fd5b7f4e487b7100000000000000000000000000000000000000000000000000000000600052601260045260246000fd5b60008160601b9050919050565b7f5061757361626c653a206e6f7420706175736564000000000000000000000000600082015250565b7f4f776e61626c653a206e6577206f776e657220697320746865207a65726f206160008201527f6464726573730000000000000000000000000000000000000000000000000000602082015250565b7f53656e646572206973206e6f7420616c6c69626c6520746f20636c61696d0000600082015250565b7f5061757361626c653a2070617573656400000000000000000000000000000000600082015250565b7f4f776e61626c653a2063616c6c6572206973206e6f7420746865206f776e6572600082015250565b7f5468652074696d65206265747765656e20636c61696d206973206e6f7420656e60008201527f6f75676800000000000000000000000000000000000000000000000000000000602082015250565b7f53656e6465722068617665206e6f74207374616b656420746f6b656e7320616e60008201527f64206e6f7420656c6967626c6500000000000000000000000000000000000000602082015250565b7f5265656e7472616e637947756172643a207265656e7472616e742063616c6c00600082015250565b61218681611e3d565b811461219157600080fd5b50565b61219d81611e85565b81146121a857600080fd5b5056fea2646970667358221220a74d3b349b8a0c25c87e39ba99684f980d6b6dbbfa26b7f8fd2bd9b51a51b68364736f6c63430008040033",
  "devdoc": {
    "kind": "dev",
    "methods": {
      "owner()": {
        "details": "Returns the address of the current owner."
      },
      "paused()": {
        "details": "Returns true if the contract is paused, and false otherwise."
      },
      "renounceOwnership()": {
        "details": "Leaves the contract without owner. It will not be possible to call `onlyOwner` functions anymore. Can only be called by the current owner. NOTE: Renouncing ownership will leave the contract without an owner, thereby removing any functionality that is only available to the owner."
      },
      "transferOwnership(address)": {
        "details": "Transfers ownership of the contract to a new account (`newOwner`). Can only be called by the current owner."
      }
    },
    "version": 1
  },
  "userdoc": {
    "kind": "user",
    "methods": {},
    "version": 1
  },
  "storageLayout": {
    "storage": [
      {
        "astId": 389,
        "contract": "contracts/Rewards.sol:Rewards",
        "label": "_owner",
        "offset": 0,
        "slot": "0",
        "type": "t_address"
      },
      {
        "astId": 589,
        "contract": "contracts/Rewards.sol:Rewards",
        "label": "_status",
        "offset": 0,
        "slot": "1",
        "type": "t_uint256"
      },
      {
        "astId": 504,
        "contract": "contracts/Rewards.sol:Rewards",
        "label": "_paused",
        "offset": 0,
        "slot": "2",
        "type": "t_bool"
      },
      {
        "astId": 2632,
        "contract": "contracts/Rewards.sol:Rewards",
        "label": "rewardsToken",
        "offset": 1,
        "slot": "2",
        "type": "t_contract(IERC20Mintable)2623"
      },
      {
        "astId": 2635,
        "contract": "contracts/Rewards.sol:Rewards",
        "label": "stakingToken",
        "offset": 0,
        "slot": "3",
        "type": "t_contract(IERC20)1242"
      },
      {
        "astId": 2649,
        "contract": "contracts/Rewards.sol:Rewards",
        "label": "claimInterval",
        "offset": 0,
        "slot": "4",
        "type": "t_uint256"
      },
      {
        "astId": 2654,
        "contract": "contracts/Rewards.sol:Rewards",
        "label": "claimAmount",
        "offset": 0,
        "slot": "5",
        "type": "t_uint256"
      },
      {
        "astId": 2657,
        "contract": "contracts/Rewards.sol:Rewards",
        "label": "claimBonusNumerator",
        "offset": 0,
        "slot": "6",
        "type": "t_uint256"
      },
      {
        "astId": 2662,
        "contract": "contracts/Rewards.sol:Rewards",
        "label": "claimBonusCeiling",
        "offset": 0,
        "slot": "7",
        "type": "t_uint256"
      },
      {
        "astId": 2665,
        "contract": "contracts/Rewards.sol:Rewards",
        "label": "stakingTokenDecimals",
        "offset": 0,
        "slot": "8",
        "type": "t_uint256"
      },
      {
        "astId": 2671,
        "contract": "contracts/Rewards.sol:Rewards",
        "label": "hasInitialClaimed",
        "offset": 0,
        "slot": "9",
        "type": "t_mapping(t_address,t_bool)"
      },
      {
        "astId": 2675,
        "contract": "contracts/Rewards.sol:Rewards",
        "label": "lastClaimed",
        "offset": 0,
        "slot": "10",
        "type": "t_mapping(t_address,t_uint256)"
      }
    ],
    "types": {
      "t_address": {
        "encoding": "inplace",
        "label": "address",
        "numberOfBytes": "20"
      },
      "t_bool": {
        "encoding": "inplace",
        "label": "bool",
        "numberOfBytes": "1"
      },
      "t_contract(IERC20)1242": {
        "encoding": "inplace",
        "label": "contract IERC20",
        "numberOfBytes": "20"
      },
      "t_contract(IERC20Mintable)2623": {
        "encoding": "inplace",
        "label": "contract IERC20Mintable",
        "numberOfBytes": "20"
      },
      "t_mapping(t_address,t_bool)": {
        "encoding": "mapping",
        "key": "t_address",
        "label": "mapping(address => bool)",
        "numberOfBytes": "32",
        "value": "t_bool"
      },
      "t_mapping(t_address,t_uint256)": {
        "encoding": "mapping",
        "key": "t_address",
        "label": "mapping(address => uint256)",
        "numberOfBytes": "32",
        "value": "t_uint256"
      },
      "t_uint256": {
        "encoding": "inplace",
        "label": "uint256",
        "numberOfBytes": "32"
      }
    }
  }
}