{
  "address": "0x9B0824f3340dCcc8B5Ba3ea23a05ee458E4b4a2C",
  "abi": [
    {
      "inputs": [
        {
          "internalType": "address",
          "name": "_taxAddress",
          "type": "address"
        }
      ],
      "stateMutability": "nonpayable",
      "type": "constructor"
    },
    {
      "anonymous": false,
      "inputs": [
        {
          "indexed": true,
          "internalType": "address",
          "name": "owner",
          "type": "address"
        },
        {
          "indexed": true,
          "internalType": "address",
          "name": "spender",
          "type": "address"
        },
        {
          "indexed": false,
          "internalType": "uint256",
          "name": "value",
          "type": "uint256"
        }
      ],
      "name": "Approval",
      "type": "event"
    },
    {
      "anonymous": false,
      "inputs": [
        {
          "indexed": false,
          "internalType": "address",
          "name": "account",
          "type": "address"
        }
      ],
      "name": "Paused",
      "type": "event"
    },
    {
      "anonymous": false,
      "inputs": [
        {
          "indexed": true,
          "internalType": "bytes32",
          "name": "role",
          "type": "bytes32"
        },
        {
          "indexed": true,
          "internalType": "bytes32",
          "name": "previousAdminRole",
          "type": "bytes32"
        },
        {
          "indexed": true,
          "internalType": "bytes32",
          "name": "newAdminRole",
          "type": "bytes32"
        }
      ],
      "name": "RoleAdminChanged",
      "type": "event"
    },
    {
      "anonymous": false,
      "inputs": [
        {
          "indexed": true,
          "internalType": "bytes32",
          "name": "role",
          "type": "bytes32"
        },
        {
          "indexed": true,
          "internalType": "address",
          "name": "account",
          "type": "address"
        },
        {
          "indexed": true,
          "internalType": "address",
          "name": "sender",
          "type": "address"
        }
      ],
      "name": "RoleGranted",
      "type": "event"
    },
    {
      "anonymous": false,
      "inputs": [
        {
          "indexed": true,
          "internalType": "bytes32",
          "name": "role",
          "type": "bytes32"
        },
        {
          "indexed": true,
          "internalType": "address",
          "name": "account",
          "type": "address"
        },
        {
          "indexed": true,
          "internalType": "address",
          "name": "sender",
          "type": "address"
        }
      ],
      "name": "RoleRevoked",
      "type": "event"
    },
    {
      "anonymous": false,
      "inputs": [
        {
          "indexed": true,
          "internalType": "address",
          "name": "from",
          "type": "address"
        },
        {
          "indexed": true,
          "internalType": "address",
          "name": "to",
          "type": "address"
        },
        {
          "indexed": false,
          "internalType": "uint256",
          "name": "value",
          "type": "uint256"
        }
      ],
      "name": "Transfer",
      "type": "event"
    },
    {
      "anonymous": false,
      "inputs": [
        {
          "indexed": false,
          "internalType": "address",
          "name": "account",
          "type": "address"
        }
      ],
      "name": "Unpaused",
      "type": "event"
    },
    {
      "inputs": [],
      "name": "BURNER_ROLE",
      "outputs": [
        {
          "internalType": "bytes32",
          "name": "",
          "type": "bytes32"
        }
      ],
      "stateMutability": "view",
      "type": "function"
    },
    {
      "inputs": [],
      "name": "DEFAULT_ADMIN_ROLE",
      "outputs": [
        {
          "internalType": "bytes32",
          "name": "",
          "type": "bytes32"
        }
      ],
      "stateMutability": "view",
      "type": "function"
    },
    {
      "inputs": [],
      "name": "DENOMINATOR",
      "outputs": [
        {
          "internalType": "uint256",
          "name": "",
          "type": "uint256"
        }
      ],
      "stateMutability": "view",
      "type": "function"
    },
    {
      "inputs": [],
      "name": "MINTER_ROLE",
      "outputs": [
        {
          "internalType": "bytes32",
          "name": "",
          "type": "bytes32"
        }
      ],
      "stateMutability": "view",
      "type": "function"
    },
    {
      "inputs": [],
      "name": "PAUSER_ROLE",
      "outputs": [
        {
          "internalType": "bytes32",
          "name": "",
          "type": "bytes32"
        }
      ],
      "stateMutability": "view",
      "type": "function"
    },
    {
      "inputs": [
        {
          "internalType": "address",
          "name": "owner",
          "type": "address"
        },
        {
          "internalType": "address",
          "name": "spender",
          "type": "address"
        }
      ],
      "name": "allowance",
      "outputs": [
        {
          "internalType": "uint256",
          "name": "",
          "type": "uint256"
        }
      ],
      "stateMutability": "view",
      "type": "function"
    },
    {
      "inputs": [
        {
          "internalType": "address",
          "name": "spender",
          "type": "address"
        },
        {
          "internalType": "uint256",
          "name": "amount",
          "type": "uint256"
        }
      ],
      "name": "approve",
      "outputs": [
        {
          "internalType": "bool",
          "name": "",
          "type": "bool"
        }
      ],
      "stateMutability": "nonpayable",
      "type": "function"
    },
    {
      "inputs": [
        {
          "internalType": "address",
          "name": "account",
          "type": "address"
        }
      ],
      "name": "balanceOf",
      "outputs": [
        {
          "internalType": "uint256",
          "name": "",
          "type": "uint256"
        }
      ],
      "stateMutability": "view",
      "type": "function"
    },
    {
      "inputs": [
        {
          "internalType": "address",
          "name": "from",
          "type": "address"
        },
        {
          "internalType": "uint256",
          "name": "amount",
          "type": "uint256"
        }
      ],
      "name": "burn",
      "outputs": [],
      "stateMutability": "nonpayable",
      "type": "function"
    },
    {
      "inputs": [],
      "name": "burnableTimestamp",
      "outputs": [
        {
          "internalType": "uint256",
          "name": "",
          "type": "uint256"
        }
      ],
      "stateMutability": "view",
      "type": "function"
    },
    {
      "inputs": [],
      "name": "decimals",
      "outputs": [
        {
          "internalType": "uint8",
          "name": "",
          "type": "uint8"
        }
      ],
      "stateMutability": "view",
      "type": "function"
    },
    {
      "inputs": [
        {
          "internalType": "address",
          "name": "spender",
          "type": "address"
        },
        {
          "internalType": "uint256",
          "name": "subtractedValue",
          "type": "uint256"
        }
      ],
      "name": "decreaseAllowance",
      "outputs": [
        {
          "internalType": "bool",
          "name": "",
          "type": "bool"
        }
      ],
      "stateMutability": "nonpayable",
      "type": "function"
    },
    {
      "inputs": [
        {
          "internalType": "bytes32",
          "name": "role",
          "type": "bytes32"
        }
      ],
      "name": "getRoleAdmin",
      "outputs": [
        {
          "internalType": "bytes32",
          "name": "",
          "type": "bytes32"
        }
      ],
      "stateMutability": "view",
      "type": "function"
    },
    {
      "inputs": [
        {
          "internalType": "bytes32",
          "name": "role",
          "type": "bytes32"
        },
        {
          "internalType": "address",
          "name": "account",
          "type": "address"
        }
      ],
      "name": "grantRole",
      "outputs": [],
      "stateMutability": "nonpayable",
      "type": "function"
    },
    {
      "inputs": [
        {
          "internalType": "bytes32",
          "name": "role",
          "type": "bytes32"
        },
        {
          "internalType": "address",
          "name": "account",
          "type": "address"
        }
      ],
      "name": "hasRole",
      "outputs": [
        {
          "internalType": "bool",
          "name": "",
          "type": "bool"
        }
      ],
      "stateMutability": "view",
      "type": "function"
    },
    {
      "inputs": [
        {
          "internalType": "address",
          "name": "spender",
          "type": "address"
        },
        {
          "internalType": "uint256",
          "name": "addedValue",
          "type": "uint256"
        }
      ],
      "name": "increaseAllowance",
      "outputs": [
        {
          "internalType": "bool",
          "name": "",
          "type": "bool"
        }
      ],
      "stateMutability": "nonpayable",
      "type": "function"
    },
    {
      "inputs": [
        {
          "internalType": "address",
          "name": "to",
          "type": "address"
        },
        {
          "internalType": "uint256",
          "name": "amount",
          "type": "uint256"
        }
      ],
      "name": "mint",
      "outputs": [],
      "stateMutability": "nonpayable",
      "type": "function"
    },
    {
      "inputs": [],
      "name": "name",
      "outputs": [
        {
          "internalType": "string",
          "name": "",
          "type": "string"
        }
      ],
      "stateMutability": "view",
      "type": "function"
    },
    {
      "inputs": [],
      "name": "pause",
      "outputs": [],
      "stateMutability": "nonpayable",
      "type": "function"
    },
    {
      "inputs": [],
      "name": "paused",
      "outputs": [
        {
          "internalType": "bool",
          "name": "",
          "type": "bool"
        }
      ],
      "stateMutability": "view",
      "type": "function"
    },
    {
      "inputs": [
        {
          "internalType": "bytes32",
          "name": "role",
          "type": "bytes32"
        },
        {
          "internalType": "address",
          "name": "account",
          "type": "address"
        }
      ],
      "name": "renounceRole",
      "outputs": [],
      "stateMutability": "nonpayable",
      "type": "function"
    },
    {
      "inputs": [
        {
          "internalType": "bytes32",
          "name": "role",
          "type": "bytes32"
        },
        {
          "internalType": "address",
          "name": "account",
          "type": "address"
        }
      ],
      "name": "revokeRole",
      "outputs": [],
      "stateMutability": "nonpayable",
      "type": "function"
    },
    {
      "inputs": [
        {
          "internalType": "uint256",
          "name": "_timestamp",
          "type": "uint256"
        }
      ],
      "name": "setBurnableTimestamp",
      "outputs": [],
      "stateMutability": "nonpayable",
      "type": "function"
    },
    {
      "inputs": [
        {
          "internalType": "address",
          "name": "_taxAddress",
          "type": "address"
        }
      ],
      "name": "setTaxAddress",
      "outputs": [],
      "stateMutability": "nonpayable",
      "type": "function"
    },
    {
      "inputs": [
        {
          "internalType": "uint256",
          "name": "_taxAmount",
          "type": "uint256"
        }
      ],
      "name": "setTaxAmount",
      "outputs": [],
      "stateMutability": "nonpayable",
      "type": "function"
    },
    {
      "inputs": [
        {
          "internalType": "bytes4",
          "name": "interfaceId",
          "type": "bytes4"
        }
      ],
      "name": "supportsInterface",
      "outputs": [
        {
          "internalType": "bool",
          "name": "",
          "type": "bool"
        }
      ],
      "stateMutability": "view",
      "type": "function"
    },
    {
      "inputs": [],
      "name": "symbol",
      "outputs": [
        {
          "internalType": "string",
          "name": "",
          "type": "string"
        }
      ],
      "stateMutability": "view",
      "type": "function"
    },
    {
      "inputs": [],
      "name": "taxAddress",
      "outputs": [
        {
          "internalType": "address",
          "name": "",
          "type": "address"
        }
      ],
      "stateMutability": "view",
      "type": "function"
    },
    {
      "inputs": [],
      "name": "taxAmount",
      "outputs": [
        {
          "internalType": "uint256",
          "name": "",
          "type": "uint256"
        }
      ],
      "stateMutability": "view",
      "type": "function"
    },
    {
      "inputs": [],
      "name": "totalSupply",
      "outputs": [
        {
          "internalType": "uint256",
          "name": "",
          "type": "uint256"
        }
      ],
      "stateMutability": "view",
      "type": "function"
    },
    {
      "inputs": [
        {
          "internalType": "address",
          "name": "recipient",
          "type": "address"
        },
        {
          "internalType": "uint256",
          "name": "amount",
          "type": "uint256"
        }
      ],
      "name": "transfer",
      "outputs": [
        {
          "internalType": "bool",
          "name": "",
          "type": "bool"
        }
      ],
      "stateMutability": "nonpayable",
      "type": "function"
    },
    {
      "inputs": [
        {
          "internalType": "address",
          "name": "sender",
          "type": "address"
        },
        {
          "internalType": "address",
          "name": "recipient",
          "type": "address"
        },
        {
          "internalType": "uint256",
          "name": "amount",
          "type": "uint256"
        }
      ],
      "name": "transferFrom",
      "outputs": [
        {
          "internalType": "bool",
          "name": "",
          "type": "bool"
        }
      ],
      "stateMutability": "nonpayable",
      "type": "function"
    },
    {
      "inputs": [
        {
          "internalType": "address",
          "name": "newOwner",
          "type": "address"
        }
      ],
      "name": "transferOwnership",
      "outputs": [],
      "stateMutability": "nonpayable",
      "type": "function"
    },
    {
      "inputs": [],
      "name": "unpause",
      "outputs": [],
      "stateMutability": "nonpayable",
      "type": "function"
    }
  ],
  "transactionHash": "0xc7fcacefead1f7ef39da37b52773812aaccdb34616ab6eede8f0d3333504d97f",
  "args": [
    "0x0000000000000000000000000000000000000000"
  ],
  "numDeployments": 3,
  "solcInputHash": "a79a78307d40814b4a4e9f939b4397b1",
  "bytecode": "0x608060405261014a6007553480156200001757600080fd5b50604051620037dd380380620037dd83398181016040528101906200003d91906200042e565b6040518060400160405280600581526020017f47726170650000000000000000000000000000000000000000000000000000008152506040518060400160405280600581526020017f47524150450000000000000000000000000000000000000000000000000000008152508160039080519060200190620000c192919062000367565b508060049080519060200190620000da92919062000367565b5050506000600560006101000a81548160ff0219169083151502179055506200010d6000801b336200020260201b60201c565b6200013f7f65d7a28e3265b37a6474929f336521b332c1681b933f6cb9f3376673440d862a336200020260201b60201c565b620001717f9f2df0fed2c77648de5860a4cc508cd0818c85b8b8a1ab4ceeef8d981c8956a6336200020260201b60201c565b620001a37f3c11d16cbaffd01df69ce1c404f6340ee057498f5f00246190ea54220576a848336200020260201b60201c565b80600960006101000a81548173ffffffffffffffffffffffffffffffffffffffff021916908373ffffffffffffffffffffffffffffffffffffffff16021790555062ed4e0042620001f591906200045a565b60088190555050620005a3565b620002148282620002f460201b60201c565b620002f05760016006600084815260200190815260200160002060000160008373ffffffffffffffffffffffffffffffffffffffff1673ffffffffffffffffffffffffffffffffffffffff16815260200190815260200160002060006101000a81548160ff021916908315150217905550620002956200035f60201b60201c565b73ffffffffffffffffffffffffffffffffffffffff168173ffffffffffffffffffffffffffffffffffffffff16837f2f8788117e7eff1d82e926ec794901d17c78024a50270940304540a733656f0d60405160405180910390a45b5050565b60006006600084815260200190815260200160002060000160008373ffffffffffffffffffffffffffffffffffffffff1673ffffffffffffffffffffffffffffffffffffffff16815260200190815260200160002060009054906101000a900460ff16905092915050565b600033905090565b8280546200037590620004f5565b90600052602060002090601f016020900481019282620003995760008555620003e5565b82601f10620003b457805160ff1916838001178555620003e5565b82800160010185558215620003e5579182015b82811115620003e4578251825591602001919060010190620003c7565b5b509050620003f49190620003f8565b5090565b5b8082111562000413576000816000905550600101620003f9565b5090565b600081519050620004288162000589565b92915050565b6000602082840312156200044157600080fd5b6000620004518482850162000417565b91505092915050565b60006200046782620004eb565b91506200047483620004eb565b9250827fffffffffffffffffffffffffffffffffffffffffffffffffffffffffffffffff03821115620004ac57620004ab6200052b565b5b828201905092915050565b6000620004c482620004cb565b9050919050565b600073ffffffffffffffffffffffffffffffffffffffff82169050919050565b6000819050919050565b600060028204905060018216806200050e57607f821691505b602082108114156200052557620005246200055a565b5b50919050565b7f4e487b7100000000000000000000000000000000000000000000000000000000600052601160045260246000fd5b7f4e487b7100000000000000000000000000000000000000000000000000000000600052602260045260246000fd5b6200059481620004b7565b8114620005a057600080fd5b50565b61322a80620005b36000396000f3fe608060405234801561001057600080fd5b50600436106102065760003560e01c80638456cb591161011a578063a9059cbb116100ad578063d53913931161007c578063d5391393146105dd578063d547741f146105fb578063dd62ed3e14610617578063e63ab1e914610647578063f2fde38b1461066557610206565b8063a9059cbb14610555578063ad5ea36f14610585578063b7bda68f146105a3578063c3d9c9d7146105c157610206565b80639dc29fac116100e95780639dc29fac146104cf578063a1883d26146104eb578063a217fddf14610507578063a457c2d71461052557610206565b80638456cb5914610459578063918f86741461046357806391d148541461048157806395d89b41146104b157610206565b8063313ce5671161019d57806340c10f191161016c57806340c10f19146103b5578063498fddc6146103d15780635c975abb146103ed5780636dc7a0191461040b57806370a082311461042957610206565b8063313ce5671461034157806336568abe1461035f578063395093511461037b5780633f4ba83a146103ab57610206565b806323b872dd116101d957806323b872dd146102a7578063248a9ca3146102d7578063282c51f3146103075780632f2ff15d1461032557610206565b806301ffc9a71461020b57806306fdde031461023b578063095ea7b31461025957806318160ddd14610289575b600080fd5b6102256004803603810190610220919061232e565b610681565b6040516102329190612723565b60405180910390f35b6102436106fb565b6040516102509190612759565b60405180910390f35b610273600480360381019061026e919061228d565b61078d565b6040516102809190612723565b60405180910390f35b6102916107ab565b60405161029e919061299b565b60405180910390f35b6102c160048036038101906102bc919061223e565b6107b5565b6040516102ce9190612723565b60405180910390f35b6102f160048036038101906102ec91906122c9565b6108ad565b6040516102fe919061273e565b60405180910390f35b61030f6108cd565b60405161031c919061273e565b60405180910390f35b61033f600480360381019061033a91906122f2565b6108f1565b005b61034961091a565b60405161035691906129b6565b60405180910390f35b610379600480360381019061037491906122f2565b610923565b005b6103956004803603810190610390919061228d565b6109a6565b6040516103a29190612723565b60405180910390f35b6103b3610a52565b005b6103cf60048036038101906103ca919061228d565b610a8f565b005b6103eb60048036038101906103e69190612357565b610bb5565b005b6103f5610c17565b6040516104029190612723565b60405180910390f35b610413610c2e565b604051610420919061299b565b60405180910390f35b610443600480360381019061043e91906121d9565b610c34565b604051610450919061299b565b60405180910390f35b610461610c7c565b005b61046b610cb9565b604051610478919061299b565b60405180910390f35b61049b600480360381019061049691906122f2565b610cbf565b6040516104a89190612723565b60405180910390f35b6104b9610d2a565b6040516104c69190612759565b60405180910390f35b6104e960048036038101906104e4919061228d565b610dbc565b005b610505600480360381019061050091906121d9565b610e42565b005b61050f610e9c565b60405161051c919061273e565b60405180910390f35b61053f600480360381019061053a919061228d565b610ea3565b60405161054c9190612723565b60405180910390f35b61056f600480360381019061056a919061228d565b610f8e565b60405161057c9190612723565b60405180910390f35b61058d610fac565b60405161059a919061299b565b60405180910390f35b6105ab610fb2565b6040516105b89190612708565b60405180910390f35b6105db60048036038101906105d69190612357565b610fd8565b005b6105e5610ff8565b6040516105f2919061273e565b60405180910390f35b610615600480360381019061061091906122f2565b61101c565b005b610631600480360381019061062c9190612202565b611045565b60405161063e919061299b565b60405180910390f35b61064f6110cc565b60405161065c919061273e565b60405180910390f35b61067f600480360381019061067a91906121d9565b6110f0565b005b60007f7965db0b000000000000000000000000000000000000000000000000000000007bffffffffffffffffffffffffffffffffffffffffffffffffffffffff1916827bffffffffffffffffffffffffffffffffffffffffffffffffffffffff191614806106f457506106f38261128f565b5b9050919050565b60606003805461070a90612bf5565b80601f016020809104026020016040519081016040528092919081815260200182805461073690612bf5565b80156107835780601f1061075857610100808354040283529160200191610783565b820191906000526020600020905b81548152906001019060200180831161076657829003601f168201915b5050505050905090565b60006107a161079a6112f9565b8484611301565b6001905092915050565b6000600254905090565b60006107c28484846114cc565b6000600160008673ffffffffffffffffffffffffffffffffffffffff1673ffffffffffffffffffffffffffffffffffffffff168152602001908152602001600020600061080d6112f9565b73ffffffffffffffffffffffffffffffffffffffff1673ffffffffffffffffffffffffffffffffffffffff1681526020019081526020016000205490508281101561088d576040517f08c379a00000000000000000000000000000000000000000000000000000000081526004016108849061289b565b60405180910390fd5b6108a1856108996112f9565b858403611301565b60019150509392505050565b600060066000838152602001908152602001600020600101549050919050565b7f3c11d16cbaffd01df69ce1c404f6340ee057498f5f00246190ea54220576a84881565b6108fa826108ad565b61090b816109066112f9565b61174d565b61091583836117ea565b505050565b60006012905090565b61092b6112f9565b73ffffffffffffffffffffffffffffffffffffffff168173ffffffffffffffffffffffffffffffffffffffff1614610998576040517f08c379a000000000000000000000000000000000000000000000000000000000815260040161098f9061295b565b60405180910390fd5b6109a282826118cb565b5050565b6000610a486109b36112f9565b8484600160006109c16112f9565b73ffffffffffffffffffffffffffffffffffffffff1673ffffffffffffffffffffffffffffffffffffffff16815260200190815260200160002060008873ffffffffffffffffffffffffffffffffffffffff1673ffffffffffffffffffffffffffffffffffffffff16815260200190815260200160002054610a4391906129f8565b611301565b6001905092915050565b7f65d7a28e3265b37a6474929f336521b332c1681b933f6cb9f3376673440d862a610a8481610a7f6112f9565b61174d565b610a8c6119ad565b50565b610a97610c17565b15610ad7576040517f08c379a0000000000000000000000000000000000000000000000000000000008152600401610ace9061285b565b60405180910390fd5b7f9f2df0fed2c77648de5860a4cc508cd0818c85b8b8a1ab4ceeef8d981c8956a6610b0981610b046112f9565b61174d565b610b138383611a4f565b600073ffffffffffffffffffffffffffffffffffffffff16600960009054906101000a900473ffffffffffffffffffffffffffffffffffffffff1673ffffffffffffffffffffffffffffffffffffffff1614610bb057610baf600960009054906101000a900473ffffffffffffffffffffffffffffffffffffffff1661271060075485610ba09190612a7f565b610baa9190612a4e565b611a4f565b5b505050565b6000801b610bca81610bc56112f9565b61174d565b428211610c0c576040517f08c379a0000000000000000000000000000000000000000000000000000000008152600401610c039061291b565b60405180910390fd5b816008819055505050565b6000600560009054906101000a900460ff16905090565b60085481565b60008060008373ffffffffffffffffffffffffffffffffffffffff1673ffffffffffffffffffffffffffffffffffffffff168152602001908152602001600020549050919050565b7f65d7a28e3265b37a6474929f336521b332c1681b933f6cb9f3376673440d862a610cae81610ca96112f9565b61174d565b610cb6611baf565b50565b61271081565b60006006600084815260200190815260200160002060000160008373ffffffffffffffffffffffffffffffffffffffff1673ffffffffffffffffffffffffffffffffffffffff16815260200190815260200160002060009054906101000a900460ff16905092915050565b606060048054610d3990612bf5565b80601f0160208091040260200160405190810160405280929190818152602001828054610d6590612bf5565b8015610db25780601f10610d8757610100808354040283529160200191610db2565b820191906000526020600020905b815481529060010190602001808311610d9557829003601f168201915b5050505050905090565b7f3c11d16cbaffd01df69ce1c404f6340ee057498f5f00246190ea54220576a848610dee81610de96112f9565b61174d565b426008541115610e33576040517f08c379a0000000000000000000000000000000000000000000000000000000008152600401610e2a9061283b565b60405180910390fd5b610e3d8383611c52565b505050565b6000801b610e5781610e526112f9565b61174d565b81600960006101000a81548173ffffffffffffffffffffffffffffffffffffffff021916908373ffffffffffffffffffffffffffffffffffffffff1602179055505050565b6000801b81565b60008060016000610eb26112f9565b73ffffffffffffffffffffffffffffffffffffffff1673ffffffffffffffffffffffffffffffffffffffff16815260200190815260200160002060008573ffffffffffffffffffffffffffffffffffffffff1673ffffffffffffffffffffffffffffffffffffffff16815260200190815260200160002054905082811015610f6f576040517f08c379a0000000000000000000000000000000000000000000000000000000008152600401610f669061293b565b60405180910390fd5b610f83610f7a6112f9565b85858403611301565b600191505092915050565b6000610fa2610f9b6112f9565b84846114cc565b6001905092915050565b60075481565b600960009054906101000a900473ffffffffffffffffffffffffffffffffffffffff1681565b6000801b610fed81610fe86112f9565b61174d565b816007819055505050565b7f9f2df0fed2c77648de5860a4cc508cd0818c85b8b8a1ab4ceeef8d981c8956a681565b611025826108ad565b611036816110316112f9565b61174d565b61104083836118cb565b505050565b6000600160008473ffffffffffffffffffffffffffffffffffffffff1673ffffffffffffffffffffffffffffffffffffffff16815260200190815260200160002060008373ffffffffffffffffffffffffffffffffffffffff1673ffffffffffffffffffffffffffffffffffffffff16815260200190815260200160002054905092915050565b7f65d7a28e3265b37a6474929f336521b332c1681b933f6cb9f3376673440d862a81565b6000801b611105816111006112f9565b61174d565b600073ffffffffffffffffffffffffffffffffffffffff168273ffffffffffffffffffffffffffffffffffffffff161415611175576040517f08c379a000000000000000000000000000000000000000000000000000000000815260040161116c9061287b565b60405180910390fd5b6111826000801b836117ea565b6111ac7f65d7a28e3265b37a6474929f336521b332c1681b933f6cb9f3376673440d862a836117ea565b6111d67f9f2df0fed2c77648de5860a4cc508cd0818c85b8b8a1ab4ceeef8d981c8956a6836117ea565b6112007f3c11d16cbaffd01df69ce1c404f6340ee057498f5f00246190ea54220576a848836117ea565b61120d6000801b33610923565b6112377f65d7a28e3265b37a6474929f336521b332c1681b933f6cb9f3376673440d862a33610923565b6112617f9f2df0fed2c77648de5860a4cc508cd0818c85b8b8a1ab4ceeef8d981c8956a633610923565b61128b7f3c11d16cbaffd01df69ce1c404f6340ee057498f5f00246190ea54220576a84833610923565b5050565b60007f01ffc9a7000000000000000000000000000000000000000000000000000000007bffffffffffffffffffffffffffffffffffffffffffffffffffffffff1916827bffffffffffffffffffffffffffffffffffffffffffffffffffffffff1916149050919050565b600033905090565b600073ffffffffffffffffffffffffffffffffffffffff168373ffffffffffffffffffffffffffffffffffffffff161415611371576040517f08c379a0000000000000000000000000000000000000000000000000000000008152600401611368906128fb565b60405180910390fd5b600073ffffffffffffffffffffffffffffffffffffffff168273ffffffffffffffffffffffffffffffffffffffff1614156113e1576040517f08c379a00000000000000000000000000000000000000000000000000000000081526004016113d8906127fb565b60405180910390fd5b80600160008573ffffffffffffffffffffffffffffffffffffffff1673ffffffffffffffffffffffffffffffffffffffff16815260200190815260200160002060008473ffffffffffffffffffffffffffffffffffffffff1673ffffffffffffffffffffffffffffffffffffffff168152602001908152602001600020819055508173ffffffffffffffffffffffffffffffffffffffff168373ffffffffffffffffffffffffffffffffffffffff167f8c5be1e5ebec7d5bd14f71427d1e84f3dd0314c0f7b2291e5b200ac8c7c3b925836040516114bf919061299b565b60405180910390a3505050565b600073ffffffffffffffffffffffffffffffffffffffff168373ffffffffffffffffffffffffffffffffffffffff16141561153c576040517f08c379a0000000000000000000000000000000000000000000000000000000008152600401611533906128db565b60405180910390fd5b600073ffffffffffffffffffffffffffffffffffffffff168273ffffffffffffffffffffffffffffffffffffffff1614156115ac576040517f08c379a00000000000000000000000000000000000000000000000000000000081526004016115a39061279b565b60405180910390fd5b6115b7838383611e29565b60008060008573ffffffffffffffffffffffffffffffffffffffff1673ffffffffffffffffffffffffffffffffffffffff1681526020019081526020016000205490508181101561163d576040517f08c379a00000000000000000000000000000000000000000000000000000000081526004016116349061281b565b60405180910390fd5b8181036000808673ffffffffffffffffffffffffffffffffffffffff1673ffffffffffffffffffffffffffffffffffffffff16815260200190815260200160002081905550816000808573ffffffffffffffffffffffffffffffffffffffff1673ffffffffffffffffffffffffffffffffffffffff16815260200190815260200160002060008282546116d091906129f8565b925050819055508273ffffffffffffffffffffffffffffffffffffffff168473ffffffffffffffffffffffffffffffffffffffff167fddf252ad1be2c89b69c2b068fc378daa952ba7f163c4a11628f55a4df523b3ef84604051611734919061299b565b60405180910390a3611747848484611e81565b50505050565b6117578282610cbf565b6117e65761177c8173ffffffffffffffffffffffffffffffffffffffff166014611e86565b61178a8360001c6020611e86565b60405160200161179b9291906126ce565b6040516020818303038152906040526040517f08c379a00000000000000000000000000000000000000000000000000000000081526004016117dd9190612759565b60405180910390fd5b5050565b6117f48282610cbf565b6118c75760016006600084815260200190815260200160002060000160008373ffffffffffffffffffffffffffffffffffffffff1673ffffffffffffffffffffffffffffffffffffffff16815260200190815260200160002060006101000a81548160ff02191690831515021790555061186c6112f9565b73ffffffffffffffffffffffffffffffffffffffff168173ffffffffffffffffffffffffffffffffffffffff16837f2f8788117e7eff1d82e926ec794901d17c78024a50270940304540a733656f0d60405160405180910390a45b5050565b6118d58282610cbf565b156119a95760006006600084815260200190815260200160002060000160008373ffffffffffffffffffffffffffffffffffffffff1673ffffffffffffffffffffffffffffffffffffffff16815260200190815260200160002060006101000a81548160ff02191690831515021790555061194e6112f9565b73ffffffffffffffffffffffffffffffffffffffff168173ffffffffffffffffffffffffffffffffffffffff16837ff6391f5c32d9c69d2a47ea670b442974b53935d1edc7fd64eb21e047a839171b60405160405180910390a45b5050565b6119b5610c17565b6119f4576040517f08c379a00000000000000000000000000000000000000000000000000000000081526004016119eb906127bb565b60405180910390fd5b6000600560006101000a81548160ff0219169083151502179055507f5db9ee0a495bf2e6ff9c91a7834c1ba4fdd244a5e8aa4e537bd38aeae4b073aa611a386112f9565b604051611a459190612708565b60405180910390a1565b600073ffffffffffffffffffffffffffffffffffffffff168273ffffffffffffffffffffffffffffffffffffffff161415611abf576040517f08c379a0000000000000000000000000000000000000000000000000000000008152600401611ab69061297b565b60405180910390fd5b611acb60008383611e29565b8060026000828254611add91906129f8565b92505081905550806000808473ffffffffffffffffffffffffffffffffffffffff1673ffffffffffffffffffffffffffffffffffffffff1681526020019081526020016000206000828254611b3291906129f8565b925050819055508173ffffffffffffffffffffffffffffffffffffffff16600073ffffffffffffffffffffffffffffffffffffffff167fddf252ad1be2c89b69c2b068fc378daa952ba7f163c4a11628f55a4df523b3ef83604051611b97919061299b565b60405180910390a3611bab60008383611e81565b5050565b611bb7610c17565b15611bf7576040517f08c379a0000000000000000000000000000000000000000000000000000000008152600401611bee9061285b565b60405180910390fd5b6001600560006101000a81548160ff0219169083151502179055507f62e78cea01bee320cd4e420270b5ea74000d11b0c9f74754ebdbfc544b05a258611c3b6112f9565b604051611c489190612708565b60405180910390a1565b600073ffffffffffffffffffffffffffffffffffffffff168273ffffffffffffffffffffffffffffffffffffffff161415611cc2576040517f08c379a0000000000000000000000000000000000000000000000000000000008152600401611cb9906128bb565b60405180910390fd5b611cce82600083611e29565b60008060008473ffffffffffffffffffffffffffffffffffffffff1673ffffffffffffffffffffffffffffffffffffffff16815260200190815260200160002054905081811015611d54576040517f08c379a0000000000000000000000000000000000000000000000000000000008152600401611d4b906127db565b60405180910390fd5b8181036000808573ffffffffffffffffffffffffffffffffffffffff1673ffffffffffffffffffffffffffffffffffffffff168152602001908152602001600020819055508160026000828254611dab9190612ad9565b92505081905550600073ffffffffffffffffffffffffffffffffffffffff168373ffffffffffffffffffffffffffffffffffffffff167fddf252ad1be2c89b69c2b068fc378daa952ba7f163c4a11628f55a4df523b3ef84604051611e10919061299b565b60405180910390a3611e2483600084611e81565b505050565b611e31610c17565b15611e71576040517f08c379a0000000000000000000000000000000000000000000000000000000008152600401611e689061285b565b60405180910390fd5b611e7c838383612180565b505050565b505050565b606060006002836002611e999190612a7f565b611ea391906129f8565b67ffffffffffffffff811115611ee2577f4e487b7100000000000000000000000000000000000000000000000000000000600052604160045260246000fd5b6040519080825280601f01601f191660200182016040528015611f145781602001600182028036833780820191505090505b5090507f300000000000000000000000000000000000000000000000000000000000000081600081518110611f72577f4e487b7100000000000000000000000000000000000000000000000000000000600052603260045260246000fd5b60200101907effffffffffffffffffffffffffffffffffffffffffffffffffffffffffffff1916908160001a9053507f780000000000000000000000000000000000000000000000000000000000000081600181518110611ffc577f4e487b7100000000000000000000000000000000000000000000000000000000600052603260045260246000fd5b60200101907effffffffffffffffffffffffffffffffffffffffffffffffffffffffffffff1916908160001a9053506000600184600261203c9190612a7f565b61204691906129f8565b90505b6001811115612132577f3031323334353637383961626364656600000000000000000000000000000000600f8616601081106120ae577f4e487b7100000000000000000000000000000000000000000000000000000000600052603260045260246000fd5b1a60f81b8282815181106120eb577f4e487b7100000000000000000000000000000000000000000000000000000000600052603260045260246000fd5b60200101907effffffffffffffffffffffffffffffffffffffffffffffffffffffffffffff1916908160001a905350600485901c94508061212b90612bcb565b9050612049565b5060008414612176576040517f08c379a000000000000000000000000000000000000000000000000000000000815260040161216d9061277b565b60405180910390fd5b8091505092915050565b505050565b60008135905061219481613198565b92915050565b6000813590506121a9816131af565b92915050565b6000813590506121be816131c6565b92915050565b6000813590506121d3816131dd565b92915050565b6000602082840312156121eb57600080fd5b60006121f984828501612185565b91505092915050565b6000806040838503121561221557600080fd5b600061222385828601612185565b925050602061223485828601612185565b9150509250929050565b60008060006060848603121561225357600080fd5b600061226186828701612185565b935050602061227286828701612185565b9250506040612283868287016121c4565b9150509250925092565b600080604083850312156122a057600080fd5b60006122ae85828601612185565b92505060206122bf858286016121c4565b9150509250929050565b6000602082840312156122db57600080fd5b60006122e98482850161219a565b91505092915050565b6000806040838503121561230557600080fd5b60006123138582860161219a565b925050602061232485828601612185565b9150509250929050565b60006020828403121561234057600080fd5b600061234e848285016121af565b91505092915050565b60006020828403121561236957600080fd5b6000612377848285016121c4565b91505092915050565b61238981612b0d565b82525050565b61239881612b1f565b82525050565b6123a781612b2b565b82525050565b60006123b8826129d1565b6123c281856129dc565b93506123d2818560208601612b98565b6123db81612cb4565b840191505092915050565b60006123f1826129d1565b6123fb81856129ed565b935061240b818560208601612b98565b80840191505092915050565b60006124246020836129dc565b915061242f82612cc5565b602082019050919050565b60006124476023836129dc565b915061245282612cee565b604082019050919050565b600061246a6014836129dc565b915061247582612d3d565b602082019050919050565b600061248d6022836129dc565b915061249882612d66565b604082019050919050565b60006124b06022836129dc565b91506124bb82612db5565b604082019050919050565b60006124d36026836129dc565b91506124de82612e04565b604082019050919050565b60006124f6602b836129dc565b915061250182612e53565b604082019050919050565b60006125196010836129dc565b915061252482612ea2565b602082019050919050565b600061253c6015836129dc565b915061254782612ecb565b602082019050919050565b600061255f6028836129dc565b915061256a82612ef4565b604082019050919050565b60006125826021836129dc565b915061258d82612f43565b604082019050919050565b60006125a56025836129dc565b91506125b082612f92565b604082019050919050565b60006125c86024836129dc565b91506125d382612fe1565b604082019050919050565b60006125eb6017836129ed565b91506125f682613030565b601782019050919050565b600061260e6038836129dc565b915061261982613059565b604082019050919050565b60006126316025836129dc565b915061263c826130a8565b604082019050919050565b60006126546011836129ed565b915061265f826130f7565b601182019050919050565b6000612677602f836129dc565b915061268282613120565b604082019050919050565b600061269a601f836129dc565b91506126a58261316f565b602082019050919050565b6126b981612b81565b82525050565b6126c881612b8b565b82525050565b60006126d9826125de565b91506126e582856123e6565b91506126f082612647565b91506126fc82846123e6565b91508190509392505050565b600060208201905061271d6000830184612380565b92915050565b6000602082019050612738600083018461238f565b92915050565b6000602082019050612753600083018461239e565b92915050565b6000602082019050818103600083015261277381846123ad565b905092915050565b6000602082019050818103600083015261279481612417565b9050919050565b600060208201905081810360008301526127b48161243a565b9050919050565b600060208201905081810360008301526127d48161245d565b9050919050565b600060208201905081810360008301526127f481612480565b9050919050565b60006020820190508181036000830152612814816124a3565b9050919050565b60006020820190508181036000830152612834816124c6565b9050919050565b60006020820190508181036000830152612854816124e9565b9050919050565b600060208201905081810360008301526128748161250c565b9050919050565b600060208201905081810360008301526128948161252f565b9050919050565b600060208201905081810360008301526128b481612552565b9050919050565b600060208201905081810360008301526128d481612575565b9050919050565b600060208201905081810360008301526128f481612598565b9050919050565b60006020820190508181036000830152612914816125bb565b9050919050565b6000602082019050818103600083015261293481612601565b9050919050565b6000602082019050818103600083015261295481612624565b9050919050565b600060208201905081810360008301526129748161266a565b9050919050565b600060208201905081810360008301526129948161268d565b9050919050565b60006020820190506129b060008301846126b0565b92915050565b60006020820190506129cb60008301846126bf565b92915050565b600081519050919050565b600082825260208201905092915050565b600081905092915050565b6000612a0382612b81565b9150612a0e83612b81565b9250827fffffffffffffffffffffffffffffffffffffffffffffffffffffffffffffffff03821115612a4357612a42612c27565b5b828201905092915050565b6000612a5982612b81565b9150612a6483612b81565b925082612a7457612a73612c56565b5b828204905092915050565b6000612a8a82612b81565b9150612a9583612b81565b9250817fffffffffffffffffffffffffffffffffffffffffffffffffffffffffffffffff0483118215151615612ace57612acd612c27565b5b828202905092915050565b6000612ae482612b81565b9150612aef83612b81565b925082821015612b0257612b01612c27565b5b828203905092915050565b6000612b1882612b61565b9050919050565b60008115159050919050565b6000819050919050565b60007fffffffff0000000000000000000000000000000000000000000000000000000082169050919050565b600073ffffffffffffffffffffffffffffffffffffffff82169050919050565b6000819050919050565b600060ff82169050919050565b60005b83811015612bb6578082015181840152602081019050612b9b565b83811115612bc5576000848401525b50505050565b6000612bd682612b81565b91506000821415612bea57612be9612c27565b5b600182039050919050565b60006002820490506001821680612c0d57607f821691505b60208210811415612c2157612c20612c85565b5b50919050565b7f4e487b7100000000000000000000000000000000000000000000000000000000600052601160045260246000fd5b7f4e487b7100000000000000000000000000000000000000000000000000000000600052601260045260246000fd5b7f4e487b7100000000000000000000000000000000000000000000000000000000600052602260045260246000fd5b6000601f19601f8301169050919050565b7f537472696e67733a20686578206c656e67746820696e73756666696369656e74600082015250565b7f45524332303a207472616e7366657220746f20746865207a65726f206164647260008201527f6573730000000000000000000000000000000000000000000000000000000000602082015250565b7f5061757361626c653a206e6f7420706175736564000000000000000000000000600082015250565b7f45524332303a206275726e20616d6f756e7420657863656564732062616c616e60008201527f6365000000000000000000000000000000000000000000000000000000000000602082015250565b7f45524332303a20617070726f766520746f20746865207a65726f20616464726560008201527f7373000000000000000000000000000000000000000000000000000000000000602082015250565b7f45524332303a207472616e7366657220616d6f756e742065786365656473206260008201527f616c616e63650000000000000000000000000000000000000000000000000000602082015250565b7f43616e74206275726e2074686520746f6b656e2e2054696d65206973206e6f7460008201527f207265616479207965742e000000000000000000000000000000000000000000602082015250565b7f5061757361626c653a2070617573656400000000000000000000000000000000600082015250565b7f416464726573732063616e7420626520656d7074790000000000000000000000600082015250565b7f45524332303a207472616e7366657220616d6f756e742065786365656473206160008201527f6c6c6f77616e6365000000000000000000000000000000000000000000000000602082015250565b7f45524332303a206275726e2066726f6d20746865207a65726f2061646472657360008201527f7300000000000000000000000000000000000000000000000000000000000000602082015250565b7f45524332303a207472616e736665722066726f6d20746865207a65726f20616460008201527f6472657373000000000000000000000000000000000000000000000000000000602082015250565b7f45524332303a20617070726f76652066726f6d20746865207a65726f2061646460008201527f7265737300000000000000000000000000000000000000000000000000000000602082015250565b7f416363657373436f6e74726f6c3a206163636f756e7420000000000000000000600082015250565b7f4e65772074696d657374616d70206e6565647320746f206265206c617267657260008201527f207468656e2063757272656e742074696d657374616d702e0000000000000000602082015250565b7f45524332303a2064656372656173656420616c6c6f77616e63652062656c6f7760008201527f207a65726f000000000000000000000000000000000000000000000000000000602082015250565b7f206973206d697373696e6720726f6c6520000000000000000000000000000000600082015250565b7f416363657373436f6e74726f6c3a2063616e206f6e6c792072656e6f756e636560008201527f20726f6c657320666f722073656c660000000000000000000000000000000000602082015250565b7f45524332303a206d696e7420746f20746865207a65726f206164647265737300600082015250565b6131a181612b0d565b81146131ac57600080fd5b50565b6131b881612b2b565b81146131c357600080fd5b50565b6131cf81612b35565b81146131da57600080fd5b50565b6131e681612b81565b81146131f157600080fd5b5056fea2646970667358221220fe591e7ce5e6b03b6da602b81d52631300cb8d424c717ae1fc8dc5073813e40664736f6c63430008040033",
  "devdoc": {
    "kind": "dev",
    "methods": {
      "allowance(address,address)": {
        "details": "See {IERC20-allowance}."
      },
      "approve(address,uint256)": {
        "details": "See {IERC20-approve}. Requirements: - `spender` cannot be the zero address."
      },
      "balanceOf(address)": {
        "details": "See {IERC20-balanceOf}."
      },
      "decimals()": {
        "details": "Returns the number of decimals used to get its user representation. For example, if `decimals` equals `2`, a balance of `505` tokens should be displayed to a user as `5.05` (`505 / 10 ** 2`). Tokens usually opt for a value of 18, imitating the relationship between Ether and Wei. This is the value {ERC20} uses, unless this function is overridden; NOTE: This information is only used for _display_ purposes: it in no way affects any of the arithmetic of the contract, including {IERC20-balanceOf} and {IERC20-transfer}."
      },
      "decreaseAllowance(address,uint256)": {
        "details": "Atomically decreases the allowance granted to `spender` by the caller. This is an alternative to {approve} that can be used as a mitigation for problems described in {IERC20-approve}. Emits an {Approval} event indicating the updated allowance. Requirements: - `spender` cannot be the zero address. - `spender` must have allowance for the caller of at least `subtractedValue`."
      },
      "getRoleAdmin(bytes32)": {
        "details": "Returns the admin role that controls `role`. See {grantRole} and {revokeRole}. To change a role's admin, use {_setRoleAdmin}."
      },
      "grantRole(bytes32,address)": {
        "details": "Grants `role` to `account`. If `account` had not been already granted `role`, emits a {RoleGranted} event. Requirements: - the caller must have ``role``'s admin role."
      },
      "hasRole(bytes32,address)": {
        "details": "Returns `true` if `account` has been granted `role`."
      },
      "increaseAllowance(address,uint256)": {
        "details": "Atomically increases the allowance granted to `spender` by the caller. This is an alternative to {approve} that can be used as a mitigation for problems described in {IERC20-approve}. Emits an {Approval} event indicating the updated allowance. Requirements: - `spender` cannot be the zero address."
      },
      "name()": {
        "details": "Returns the name of the token."
      },
      "paused()": {
        "details": "Returns true if the contract is paused, and false otherwise."
      },
      "renounceRole(bytes32,address)": {
        "details": "Revokes `role` from the calling account. Roles are often managed via {grantRole} and {revokeRole}: this function's purpose is to provide a mechanism for accounts to lose their privileges if they are compromised (such as when a trusted device is misplaced). If the calling account had been revoked `role`, emits a {RoleRevoked} event. Requirements: - the caller must be `account`."
      },
      "revokeRole(bytes32,address)": {
        "details": "Revokes `role` from `account`. If `account` had been granted `role`, emits a {RoleRevoked} event. Requirements: - the caller must have ``role``'s admin role."
      },
      "supportsInterface(bytes4)": {
        "details": "See {IERC165-supportsInterface}."
      },
      "symbol()": {
        "details": "Returns the symbol of the token, usually a shorter version of the name."
      },
      "totalSupply()": {
        "details": "See {IERC20-totalSupply}."
      },
      "transfer(address,uint256)": {
        "details": "See {IERC20-transfer}. Requirements: - `recipient` cannot be the zero address. - the caller must have a balance of at least `amount`."
      },
      "transferFrom(address,address,uint256)": {
        "details": "See {IERC20-transferFrom}. Emits an {Approval} event indicating the updated allowance. This is not required by the EIP. See the note at the beginning of {ERC20}. Requirements: - `sender` and `recipient` cannot be the zero address. - `sender` must have a balance of at least `amount`. - the caller must have allowance for ``sender``'s tokens of at least `amount`."
      }
    },
    "version": 1
  },
  "userdoc": {
    "kind": "user",
    "methods": {},
    "version": 1
  },
  "storageLayout": {
    "storage": [
      {
        "astId": 784,
        "contract": "contracts/GrapeToken.sol:GrapeToken",
        "label": "_balances",
        "offset": 0,
        "slot": "0",
        "type": "t_mapping(t_address,t_uint256)"
      },
      {
        "astId": 790,
        "contract": "contracts/GrapeToken.sol:GrapeToken",
        "label": "_allowances",
        "offset": 0,
        "slot": "1",
        "type": "t_mapping(t_address,t_mapping(t_address,t_uint256))"
      },
      {
        "astId": 792,
        "contract": "contracts/GrapeToken.sol:GrapeToken",
        "label": "_totalSupply",
        "offset": 0,
        "slot": "2",
        "type": "t_uint256"
      },
      {
        "astId": 794,
        "contract": "contracts/GrapeToken.sol:GrapeToken",
        "label": "_name",
        "offset": 0,
        "slot": "3",
        "type": "t_string_storage"
      },
      {
        "astId": 796,
        "contract": "contracts/GrapeToken.sol:GrapeToken",
        "label": "_symbol",
        "offset": 0,
        "slot": "4",
        "type": "t_string_storage"
      },
      {
        "astId": 654,
        "contract": "contracts/GrapeToken.sol:GrapeToken",
        "label": "_paused",
        "offset": 0,
        "slot": "5",
        "type": "t_bool"
      },
      {
        "astId": 24,
        "contract": "contracts/GrapeToken.sol:GrapeToken",
        "label": "_roles",
        "offset": 0,
        "slot": "6",
        "type": "t_mapping(t_bytes32,t_struct(RoleData)19_storage)"
      },
      {
        "astId": 3384,
        "contract": "contracts/GrapeToken.sol:GrapeToken",
        "label": "taxAmount",
        "offset": 0,
        "slot": "7",
        "type": "t_uint256"
      },
      {
        "astId": 3386,
        "contract": "contracts/GrapeToken.sol:GrapeToken",
        "label": "burnableTimestamp",
        "offset": 0,
        "slot": "8",
        "type": "t_uint256"
      },
      {
        "astId": 3388,
        "contract": "contracts/GrapeToken.sol:GrapeToken",
        "label": "taxAddress",
        "offset": 0,
        "slot": "9",
        "type": "t_address"
      }
    ],
    "types": {
      "t_address": {
        "encoding": "inplace",
        "label": "address",
        "numberOfBytes": "20"
      },
      "t_bool": {
        "encoding": "inplace",
        "label": "bool",
        "numberOfBytes": "1"
      },
      "t_bytes32": {
        "encoding": "inplace",
        "label": "bytes32",
        "numberOfBytes": "32"
      },
      "t_mapping(t_address,t_bool)": {
        "encoding": "mapping",
        "key": "t_address",
        "label": "mapping(address => bool)",
        "numberOfBytes": "32",
        "value": "t_bool"
      },
      "t_mapping(t_address,t_mapping(t_address,t_uint256))": {
        "encoding": "mapping",
        "key": "t_address",
        "label": "mapping(address => mapping(address => uint256))",
        "numberOfBytes": "32",
        "value": "t_mapping(t_address,t_uint256)"
      },
      "t_mapping(t_address,t_uint256)": {
        "encoding": "mapping",
        "key": "t_address",
        "label": "mapping(address => uint256)",
        "numberOfBytes": "32",
        "value": "t_uint256"
      },
      "t_mapping(t_bytes32,t_struct(RoleData)19_storage)": {
        "encoding": "mapping",
        "key": "t_bytes32",
        "label": "mapping(bytes32 => struct AccessControl.RoleData)",
        "numberOfBytes": "32",
        "value": "t_struct(RoleData)19_storage"
      },
      "t_string_storage": {
        "encoding": "bytes",
        "label": "string",
        "numberOfBytes": "32"
      },
      "t_struct(RoleData)19_storage": {
        "encoding": "inplace",
        "label": "struct AccessControl.RoleData",
        "members": [
          {
            "astId": 16,
            "contract": "contracts/GrapeToken.sol:GrapeToken",
            "label": "members",
            "offset": 0,
            "slot": "0",
            "type": "t_mapping(t_address,t_bool)"
          },
          {
            "astId": 18,
            "contract": "contracts/GrapeToken.sol:GrapeToken",
            "label": "adminRole",
            "offset": 0,
            "slot": "1",
            "type": "t_bytes32"
          }
        ],
        "numberOfBytes": "64"
      },
      "t_uint256": {
        "encoding": "inplace",
        "label": "uint256",
        "numberOfBytes": "32"
      }
    }
  }
}