{
  "address": "0xB3E384f0184DA1418d0Ccbdfa55328Cd6368e7B2",
  "abi": [
    {
      "inputs": [
        {
          "internalType": "address",
          "name": "_rewardsToken",
          "type": "address"
        },
        {
          "internalType": "address",
          "name": "_stakingToken",
          "type": "address"
        },
        {
          "internalType": "bytes32",
          "name": "_merkleRoot",
          "type": "bytes32"
        }
      ],
      "stateMutability": "nonpayable",
      "type": "constructor"
    },
    {
      "inputs": [],
      "name": "AlreadyClaimed",
      "type": "error"
    },
    {
      "inputs": [],
      "name": "NotInMerkle",
      "type": "error"
    },
    {
      "anonymous": false,
      "inputs": [
        {
          "indexed": true,
          "internalType": "address",
          "name": "account",
          "type": "address"
        },
        {
          "indexed": true,
          "internalType": "uint256",
          "name": "ammount",
          "type": "uint256"
        },
        {
          "indexed": true,
          "internalType": "uint256",
          "name": "timestamp",
          "type": "uint256"
        }
      ],
      "name": "Harvest",
      "type": "event"
    },
    {
      "anonymous": false,
      "inputs": [
        {
          "indexed": true,
          "internalType": "address",
          "name": "to",
          "type": "address"
        },
        {
          "indexed": false,
          "internalType": "uint256",
          "name": "amount",
          "type": "uint256"
        }
      ],
      "name": "InitialClaim",
      "type": "event"
    },
    {
      "anonymous": false,
      "inputs": [
        {
          "indexed": true,
          "internalType": "address",
          "name": "previousOwner",
          "type": "address"
        },
        {
          "indexed": true,
          "internalType": "address",
          "name": "newOwner",
          "type": "address"
        }
      ],
      "name": "OwnershipTransferred",
      "type": "event"
    },
    {
      "anonymous": false,
      "inputs": [
        {
          "indexed": false,
          "internalType": "address",
          "name": "account",
          "type": "address"
        }
      ],
      "name": "Paused",
      "type": "event"
    },
    {
      "anonymous": false,
      "inputs": [
        {
          "indexed": true,
          "internalType": "bytes32",
          "name": "role",
          "type": "bytes32"
        },
        {
          "indexed": true,
          "internalType": "bytes32",
          "name": "previousAdminRole",
          "type": "bytes32"
        },
        {
          "indexed": true,
          "internalType": "bytes32",
          "name": "newAdminRole",
          "type": "bytes32"
        }
      ],
      "name": "RoleAdminChanged",
      "type": "event"
    },
    {
      "anonymous": false,
      "inputs": [
        {
          "indexed": true,
          "internalType": "bytes32",
          "name": "role",
          "type": "bytes32"
        },
        {
          "indexed": true,
          "internalType": "address",
          "name": "account",
          "type": "address"
        },
        {
          "indexed": true,
          "internalType": "address",
          "name": "sender",
          "type": "address"
        }
      ],
      "name": "RoleGranted",
      "type": "event"
    },
    {
      "anonymous": false,
      "inputs": [
        {
          "indexed": true,
          "internalType": "bytes32",
          "name": "role",
          "type": "bytes32"
        },
        {
          "indexed": true,
          "internalType": "address",
          "name": "account",
          "type": "address"
        },
        {
          "indexed": true,
          "internalType": "address",
          "name": "sender",
          "type": "address"
        }
      ],
      "name": "RoleRevoked",
      "type": "event"
    },
    {
      "anonymous": false,
      "inputs": [
        {
          "indexed": false,
          "internalType": "address",
          "name": "account",
          "type": "address"
        }
      ],
      "name": "Unpaused",
      "type": "event"
    },
    {
      "inputs": [],
      "name": "DEFAULT_ADMIN_ROLE",
      "outputs": [
        {
          "internalType": "bytes32",
          "name": "",
          "type": "bytes32"
        }
      ],
      "stateMutability": "view",
      "type": "function"
    },
    {
      "inputs": [],
      "name": "DENOMINATOR",
      "outputs": [
        {
          "internalType": "uint256",
          "name": "",
          "type": "uint256"
        }
      ],
      "stateMutability": "view",
      "type": "function"
    },
    {
      "inputs": [],
      "name": "PAUSER_ROLE",
      "outputs": [
        {
          "internalType": "bytes32",
          "name": "",
          "type": "bytes32"
        }
      ],
      "stateMutability": "view",
      "type": "function"
    },
    {
      "inputs": [],
      "name": "RELEASER_ROLE",
      "outputs": [
        {
          "internalType": "bytes32",
          "name": "",
          "type": "bytes32"
        }
      ],
      "stateMutability": "view",
      "type": "function"
    },
    {
      "inputs": [],
      "name": "claim",
      "outputs": [],
      "stateMutability": "nonpayable",
      "type": "function"
    },
    {
      "inputs": [],
      "name": "claimAmount",
      "outputs": [
        {
          "internalType": "uint256",
          "name": "",
          "type": "uint256"
        }
      ],
      "stateMutability": "view",
      "type": "function"
    },
    {
      "inputs": [],
      "name": "claimBonusCeiling",
      "outputs": [
        {
          "internalType": "uint256",
          "name": "",
          "type": "uint256"
        }
      ],
      "stateMutability": "view",
      "type": "function"
    },
    {
      "inputs": [],
      "name": "claimBonusNumerator",
      "outputs": [
        {
          "internalType": "uint256",
          "name": "",
          "type": "uint256"
        }
      ],
      "stateMutability": "view",
      "type": "function"
    },
    {
      "inputs": [],
      "name": "claimInterval",
      "outputs": [
        {
          "internalType": "uint256",
          "name": "",
          "type": "uint256"
        }
      ],
      "stateMutability": "view",
      "type": "function"
    },
    {
      "inputs": [
        {
          "internalType": "address",
          "name": "account",
          "type": "address"
        }
      ],
      "name": "getAmount",
      "outputs": [
        {
          "internalType": "uint256",
          "name": "",
          "type": "uint256"
        }
      ],
      "stateMutability": "view",
      "type": "function"
    },
    {
      "inputs": [
        {
          "internalType": "bytes32",
          "name": "role",
          "type": "bytes32"
        }
      ],
      "name": "getRoleAdmin",
      "outputs": [
        {
          "internalType": "bytes32",
          "name": "",
          "type": "bytes32"
        }
      ],
      "stateMutability": "view",
      "type": "function"
    },
    {
      "inputs": [
        {
          "internalType": "bytes32",
          "name": "role",
          "type": "bytes32"
        },
        {
          "internalType": "address",
          "name": "account",
          "type": "address"
        }
      ],
      "name": "grantRole",
      "outputs": [],
      "stateMutability": "nonpayable",
      "type": "function"
    },
    {
      "inputs": [
        {
          "internalType": "address",
          "name": "",
          "type": "address"
        }
      ],
      "name": "hasInitialClaimed",
      "outputs": [
        {
          "internalType": "bool",
          "name": "",
          "type": "bool"
        }
      ],
      "stateMutability": "view",
      "type": "function"
    },
    {
      "inputs": [
        {
          "internalType": "bytes32",
          "name": "role",
          "type": "bytes32"
        },
        {
          "internalType": "address",
          "name": "account",
          "type": "address"
        }
      ],
      "name": "hasRole",
      "outputs": [
        {
          "internalType": "bool",
          "name": "",
          "type": "bool"
        }
      ],
      "stateMutability": "view",
      "type": "function"
    },
    {
      "inputs": [
        {
          "internalType": "address",
          "name": "to",
          "type": "address"
        },
        {
          "internalType": "uint256",
          "name": "amount",
          "type": "uint256"
        },
        {
          "internalType": "bytes32[]",
          "name": "proof",
          "type": "bytes32[]"
        }
      ],
      "name": "initialClaim",
      "outputs": [],
      "stateMutability": "nonpayable",
      "type": "function"
    },
    {
      "inputs": [
        {
          "internalType": "address",
          "name": "account",
          "type": "address"
        }
      ],
      "name": "isEligble",
      "outputs": [
        {
          "internalType": "bool",
          "name": "",
          "type": "bool"
        }
      ],
      "stateMutability": "view",
      "type": "function"
    },
    {
      "inputs": [
        {
          "internalType": "address",
          "name": "",
          "type": "address"
        }
      ],
      "name": "lastClaimed",
      "outputs": [
        {
          "internalType": "uint256",
          "name": "",
          "type": "uint256"
        }
      ],
      "stateMutability": "view",
      "type": "function"
    },
    {
      "inputs": [],
      "name": "merkleRoot",
      "outputs": [
        {
          "internalType": "bytes32",
          "name": "",
          "type": "bytes32"
        }
      ],
      "stateMutability": "view",
      "type": "function"
    },
    {
      "inputs": [],
      "name": "owner",
      "outputs": [
        {
          "internalType": "address",
          "name": "",
          "type": "address"
        }
      ],
      "stateMutability": "view",
      "type": "function"
    },
    {
      "inputs": [],
      "name": "pause",
      "outputs": [],
      "stateMutability": "nonpayable",
      "type": "function"
    },
    {
      "inputs": [],
      "name": "paused",
      "outputs": [
        {
          "internalType": "bool",
          "name": "",
          "type": "bool"
        }
      ],
      "stateMutability": "view",
      "type": "function"
    },
    {
      "inputs": [],
      "name": "renounceOwnership",
      "outputs": [],
      "stateMutability": "nonpayable",
      "type": "function"
    },
    {
      "inputs": [
        {
          "internalType": "bytes32",
          "name": "role",
          "type": "bytes32"
        },
        {
          "internalType": "address",
          "name": "account",
          "type": "address"
        }
      ],
      "name": "renounceRole",
      "outputs": [],
      "stateMutability": "nonpayable",
      "type": "function"
    },
    {
      "inputs": [
        {
          "internalType": "bytes32",
          "name": "role",
          "type": "bytes32"
        },
        {
          "internalType": "address",
          "name": "account",
          "type": "address"
        }
      ],
      "name": "revokeRole",
      "outputs": [],
      "stateMutability": "nonpayable",
      "type": "function"
    },
    {
      "inputs": [],
      "name": "rewardsToken",
      "outputs": [
        {
          "internalType": "contract IERC20Mintable",
          "name": "",
          "type": "address"
        }
      ],
      "stateMutability": "view",
      "type": "function"
    },
    {
      "inputs": [
        {
          "internalType": "uint256",
          "name": "_claimAmount",
          "type": "uint256"
        }
      ],
      "name": "setClaimAmount",
      "outputs": [],
      "stateMutability": "nonpayable",
      "type": "function"
    },
    {
      "inputs": [
        {
          "internalType": "uint256",
          "name": "_claimBonusCeiling",
          "type": "uint256"
        }
      ],
      "name": "setClaimBonusCeiling",
      "outputs": [],
      "stateMutability": "nonpayable",
      "type": "function"
    },
    {
      "inputs": [
        {
          "internalType": "uint256",
          "name": "_claimBonusNumerator",
          "type": "uint256"
        }
      ],
      "name": "setClaimBonusNumerator",
      "outputs": [],
      "stateMutability": "nonpayable",
      "type": "function"
    },
    {
      "inputs": [
        {
          "internalType": "uint256",
          "name": "_claimInterval",
          "type": "uint256"
        }
      ],
      "name": "setClaimInterval",
      "outputs": [],
      "stateMutability": "nonpayable",
      "type": "function"
    },
    {
      "inputs": [
        {
          "internalType": "address",
          "name": "_rewardsToken",
          "type": "address"
        }
      ],
      "name": "setRewardsToken",
      "outputs": [],
      "stateMutability": "nonpayable",
      "type": "function"
    },
    {
      "inputs": [
        {
          "internalType": "address",
          "name": "_stakingToken",
          "type": "address"
        }
      ],
      "name": "setStakingToken",
      "outputs": [],
      "stateMutability": "nonpayable",
      "type": "function"
    },
    {
      "inputs": [],
      "name": "stakingToken",
      "outputs": [
        {
          "internalType": "contract IERC20",
          "name": "",
          "type": "address"
        }
      ],
      "stateMutability": "view",
      "type": "function"
    },
    {
      "inputs": [
        {
          "internalType": "bytes4",
          "name": "interfaceId",
          "type": "bytes4"
        }
      ],
      "name": "supportsInterface",
      "outputs": [
        {
          "internalType": "bool",
          "name": "",
          "type": "bool"
        }
      ],
      "stateMutability": "view",
      "type": "function"
    },
    {
      "inputs": [
        {
          "internalType": "address",
          "name": "newOwner",
          "type": "address"
        }
      ],
      "name": "transferOwnership",
      "outputs": [],
      "stateMutability": "nonpayable",
      "type": "function"
    },
    {
      "inputs": [],
      "name": "unpause",
      "outputs": [],
      "stateMutability": "nonpayable",
      "type": "function"
    }
  ],
  "transactionHash": "0x783a485668bee423917e23b3bb70c0c9f55840cde6283fbd36c11ad625187377",
  "args": [
    "0xF35f3A6502F2Ecc1BD367073937FEC316465fE95",
    "0x95f152Ca091B1849E0E73bC9B43f259eAe9107e5",
    "0x060c21a98afba7c91a8615ac4a3b378e36c6352fd0164665bcf57eaca0f46d5a"
  ],
  "numDeployments": 5,
  "solcInputHash": "ed6117e6d662594d5e9cbc7778d94b45",
  "bytecode": "0x60a0604052620151806006556804563918244f4000006007556014600855680410d586a20a4c00006009553480156200003757600080fd5b50604051620032c4380380620032c483398181016040528101906200005d919062000402565b6200007d62000071620001ab60201b60201c565b620001b360201b60201c565b600180819055506000600260006101000a81548160ff02191690831515021790555082600460006101000a81548173ffffffffffffffffffffffffffffffffffffffff021916908373ffffffffffffffffffffffffffffffffffffffff16021790555081600560006101000a81548173ffffffffffffffffffffffffffffffffffffffff021916908373ffffffffffffffffffffffffffffffffffffffff16021790555080608081815250506200013e6000801b336200027760201b60201c565b620001707f65d7a28e3265b37a6474929f336521b332c1681b933f6cb9f3376673440d862a336200027760201b60201c565b620001a27f88f3509f0e42391f2d94ebfb2a37cbd0782b1b8f73715330017f4663290b8117336200027760201b60201c565b505050620004ca565b600033905090565b60008060009054906101000a900473ffffffffffffffffffffffffffffffffffffffff169050816000806101000a81548173ffffffffffffffffffffffffffffffffffffffff021916908373ffffffffffffffffffffffffffffffffffffffff1602179055508173ffffffffffffffffffffffffffffffffffffffff168173ffffffffffffffffffffffffffffffffffffffff167f8be0079c531659141344cd1fd0a4f28419497f9722a3daafe3b4186f6b6457e060405160405180910390a35050565b6200028982826200036960201b60201c565b620003655760016003600084815260200190815260200160002060000160008373ffffffffffffffffffffffffffffffffffffffff1673ffffffffffffffffffffffffffffffffffffffff16815260200190815260200160002060006101000a81548160ff0219169083151502179055506200030a620001ab60201b60201c565b73ffffffffffffffffffffffffffffffffffffffff168173ffffffffffffffffffffffffffffffffffffffff16837f2f8788117e7eff1d82e926ec794901d17c78024a50270940304540a733656f0d60405160405180910390a45b5050565b60006003600084815260200190815260200160002060000160008373ffffffffffffffffffffffffffffffffffffffff1673ffffffffffffffffffffffffffffffffffffffff16815260200190815260200160002060009054906101000a900460ff16905092915050565b600081519050620003e58162000496565b92915050565b600081519050620003fc81620004b0565b92915050565b6000806000606084860312156200041857600080fd5b60006200042886828701620003d4565b93505060206200043b86828701620003d4565b92505060406200044e86828701620003eb565b9150509250925092565b6000620004658262000476565b9050919050565b6000819050919050565b600073ffffffffffffffffffffffffffffffffffffffff82169050919050565b620004a18162000458565b8114620004ad57600080fd5b50565b620004bb816200046c565b8114620004c757600080fd5b50565b608051612dd7620004ed600039600081816109260152610f9b0152612dd76000f3fe608060405234801561001057600080fd5b50600436106102115760003560e01c806372f702f311610125578063b1c7ef0c116100ad578063de320cc11161007c578063de320cc1146105a6578063e63ab1e9146105c2578063f2d57adf146105e0578063f2fde38b146105fc578063f5a797671461061857610211565b8063b1c7ef0c14610532578063b73ece251461054e578063d1af0c7d1461056c578063d547741f1461058a57610211565b8063918f8674116100f4578063918f86741461048c57806391d14854146104aa578063a217fddf146104da578063ac28af24146104f8578063afbb85561461051657610211565b806372f702f314610428578063830953ab146104465780638456cb59146104645780638da5cb5b1461046e57610211565b80632b5ee195116101a85780633f4ba83a116101775780633f4ba83a146103ce5780634e71d92d146103d85780634fc5a3ee146103e25780635c975abb14610400578063715018a61461041e57610211565b80632b5ee195146103485780632eb4a7ab146103785780632f2ff15d1461039657806336568abe146103b257610211565b80631e9b12ef116101e45780631e9b12ef146102c457806321d767e0146102e0578063248a9ca3146102fc578063269a9b901461032c57610211565b8063013eba921461021657806301ffc9a7146102465780630b433a12146102765780631347f29314610294575b600080fd5b610230600480360381019061022b9190612084565b610648565b60405161023d919061274a565b60405180910390f35b610260600480360381019061025b919061217e565b610660565b60405161026d919061257c565b60405180910390f35b61027e6106da565b60405161028b919061274a565b60405180910390f35b6102ae60048036038101906102a99190612084565b6106e0565b6040516102bb919061257c565b60405180910390f35b6102de60048036038101906102d99190612084565b610700565b005b6102fa60048036038101906102f591906121a7565b6107c0565b005b61031660048036038101906103119190612119565b610846565b6040516103239190612597565b60405180910390f35b610346600480360381019061034191906121a7565b610866565b005b610362600480360381019061035d9190612084565b6108ec565b60405161036f919061257c565b60405180910390f35b610380610924565b60405161038d9190612597565b60405180910390f35b6103b060048036038101906103ab9190612142565b610948565b005b6103cc60048036038101906103c79190612142565b610971565b005b6103d66109f4565b005b6103e0610a31565b005b6103ea610cce565b6040516103f7919061274a565b60405180910390f35b610408610cd4565b604051610415919061257c565b60405180910390f35b610426610ceb565b005b610430610d73565b60405161043d91906125cd565b60405180910390f35b61044e610d99565b60405161045b919061274a565b60405180910390f35b61046c610d9f565b005b610476610ddc565b6040516104839190612538565b60405180910390f35b610494610e05565b6040516104a1919061274a565b60405180910390f35b6104c460048036038101906104bf9190612142565b610e0b565b6040516104d1919061257c565b60405180910390f35b6104e2610e76565b6040516104ef9190612597565b60405180910390f35b610500610e7d565b60405161050d9190612597565b60405180910390f35b610530600480360381019061052b91906120ad565b610ea1565b005b61054c600480360381019061054791906121a7565b611136565b005b6105566111bc565b604051610563919061274a565b60405180910390f35b6105746111c2565b60405161058191906125b2565b60405180910390f35b6105a4600480360381019061059f9190612142565b6111e8565b005b6105c060048036038101906105bb9190612084565b611211565b005b6105ca6112d1565b6040516105d79190612597565b60405180910390f35b6105fa60048036038101906105f591906121a7565b6112f5565b005b61061660048036038101906106119190612084565b61137b565b005b610632600480360381019061062d9190612084565b611473565b60405161063f919061274a565b60405180910390f35b600b6020528060005260406000206000915090505481565b60007f7965db0b000000000000000000000000000000000000000000000000000000007bffffffffffffffffffffffffffffffffffffffffffffffffffffffff1916827bffffffffffffffffffffffffffffffffffffffffffffffffffffffff191614806106d357506106d282611485565b5b9050919050565b60065481565b600a6020528060005260406000206000915054906101000a900460ff1681565b6107086114ef565b73ffffffffffffffffffffffffffffffffffffffff16610726610ddc565b73ffffffffffffffffffffffffffffffffffffffff161461077c576040517f08c379a0000000000000000000000000000000000000000000000000000000008152600401610773906126aa565b60405180910390fd5b80600560006101000a81548173ffffffffffffffffffffffffffffffffffffffff021916908373ffffffffffffffffffffffffffffffffffffffff16021790555050565b6107c86114ef565b73ffffffffffffffffffffffffffffffffffffffff166107e6610ddc565b73ffffffffffffffffffffffffffffffffffffffff161461083c576040517f08c379a0000000000000000000000000000000000000000000000000000000008152600401610833906126aa565b60405180910390fd5b8060088190555050565b600060036000838152602001908152602001600020600101549050919050565b61086e6114ef565b73ffffffffffffffffffffffffffffffffffffffff1661088c610ddc565b73ffffffffffffffffffffffffffffffffffffffff16146108e2576040517f08c379a00000000000000000000000000000000000000000000000000000000081526004016108d9906126aa565b60405180910390fd5b8060098190555050565b60006108f7826114f7565b610904576000905061091f565b61090d826115c5565b61091a576000905061091f565b600190505b919050565b7f000000000000000000000000000000000000000000000000000000000000000081565b61095182610846565b6109628161095d6114ef565b61162e565b61096c83836116cb565b505050565b6109796114ef565b73ffffffffffffffffffffffffffffffffffffffff168173ffffffffffffffffffffffffffffffffffffffff16146109e6576040517f08c379a00000000000000000000000000000000000000000000000000000000081526004016109dd9061272a565b60405180910390fd5b6109f082826117ac565b5050565b7f65d7a28e3265b37a6474929f336521b332c1681b933f6cb9f3376673440d862a610a2681610a216114ef565b61162e565b610a2e61188e565b50565b610a39610cd4565b15610a79576040517f08c379a0000000000000000000000000000000000000000000000000000000008152600401610a709061268a565b60405180910390fd5b60026001541415610abf576040517f08c379a0000000000000000000000000000000000000000000000000000000008152600401610ab69061270a565b60405180910390fd5b6002600181905550610ad0336114f7565b610b0f576040517f08c379a0000000000000000000000000000000000000000000000000000000008152600401610b06906126ea565b60405180910390fd5b610b18336115c5565b610b57576040517f08c379a0000000000000000000000000000000000000000000000000000000008152600401610b4e906126ca565b60405180910390fd5b610b60336108ec565b610b9f576040517f08c379a0000000000000000000000000000000000000000000000000000000008152600401610b969061266a565b60405180910390fd5b6000610baa33611930565b9050600460009054906101000a900473ffffffffffffffffffffffffffffffffffffffff1673ffffffffffffffffffffffffffffffffffffffff166340c10f1933836040518363ffffffff1660e01b8152600401610c09929190612553565b600060405180830381600087803b158015610c2357600080fd5b505af1158015610c37573d6000803e3d6000fd5b5050505042600b60003373ffffffffffffffffffffffffffffffffffffffff1673ffffffffffffffffffffffffffffffffffffffff1681526020019081526020016000208190555042813373ffffffffffffffffffffffffffffffffffffffff167f71bab65ced2e5750775a0613be067df48ef06cf92a496ebf7663ae066092495460405160405180910390a45060018081905550565b60095481565b6000600260009054906101000a900460ff16905090565b610cf36114ef565b73ffffffffffffffffffffffffffffffffffffffff16610d11610ddc565b73ffffffffffffffffffffffffffffffffffffffff1614610d67576040517f08c379a0000000000000000000000000000000000000000000000000000000008152600401610d5e906126aa565b60405180910390fd5b610d716000611a80565b565b600560009054906101000a900473ffffffffffffffffffffffffffffffffffffffff1681565b60075481565b7f65d7a28e3265b37a6474929f336521b332c1681b933f6cb9f3376673440d862a610dd181610dcc6114ef565b61162e565b610dd9611b44565b50565b60008060009054906101000a900473ffffffffffffffffffffffffffffffffffffffff16905090565b61271081565b60006003600084815260200190815260200160002060000160008373ffffffffffffffffffffffffffffffffffffffff1673ffffffffffffffffffffffffffffffffffffffff16815260200190815260200160002060009054906101000a900460ff16905092915050565b6000801b81565b7f88f3509f0e42391f2d94ebfb2a37cbd0782b1b8f73715330017f4663290b811781565b600a60008573ffffffffffffffffffffffffffffffffffffffff1673ffffffffffffffffffffffffffffffffffffffff16815260200190815260200160002060009054906101000a900460ff1615610f25576040517f646cf55800000000000000000000000000000000000000000000000000000000815260040160405180910390fd5b60008484604051602001610f3a9291906124a6565b6040516020818303038152906040528051906020012090506000610fc0848480806020026020016040519081016040528093929190818152602001838360200280828437600081840152601f19601f820116905080830192505050505050507f000000000000000000000000000000000000000000000000000000000000000084611be7565b905080610ff9576040517f8a585be200000000000000000000000000000000000000000000000000000000815260040160405180910390fd5b6001600a60008873ffffffffffffffffffffffffffffffffffffffff1673ffffffffffffffffffffffffffffffffffffffff16815260200190815260200160002060006101000a81548160ff021916908315150217905550600460009054906101000a900473ffffffffffffffffffffffffffffffffffffffff1673ffffffffffffffffffffffffffffffffffffffff166340c10f1987876040518363ffffffff1660e01b81526004016110ae929190612553565b600060405180830381600087803b1580156110c857600080fd5b505af11580156110dc573d6000803e3d6000fd5b505050508573ffffffffffffffffffffffffffffffffffffffff167f162588ac7175082a48845466bc2fc9f7c2f9219c9660a2d3788cae020492d93d86604051611126919061274a565b60405180910390a2505050505050565b61113e6114ef565b73ffffffffffffffffffffffffffffffffffffffff1661115c610ddc565b73ffffffffffffffffffffffffffffffffffffffff16146111b2576040517f08c379a00000000000000000000000000000000000000000000000000000000081526004016111a9906126aa565b60405180910390fd5b8060078190555050565b60085481565b600460009054906101000a900473ffffffffffffffffffffffffffffffffffffffff1681565b6111f182610846565b611202816111fd6114ef565b61162e565b61120c83836117ac565b505050565b6112196114ef565b73ffffffffffffffffffffffffffffffffffffffff16611237610ddc565b73ffffffffffffffffffffffffffffffffffffffff161461128d576040517f08c379a0000000000000000000000000000000000000000000000000000000008152600401611284906126aa565b60405180910390fd5b80600460006101000a81548173ffffffffffffffffffffffffffffffffffffffff021916908373ffffffffffffffffffffffffffffffffffffffff16021790555050565b7f65d7a28e3265b37a6474929f336521b332c1681b933f6cb9f3376673440d862a81565b6112fd6114ef565b73ffffffffffffffffffffffffffffffffffffffff1661131b610ddc565b73ffffffffffffffffffffffffffffffffffffffff1614611371576040517f08c379a0000000000000000000000000000000000000000000000000000000008152600401611368906126aa565b60405180910390fd5b8060068190555050565b6113836114ef565b73ffffffffffffffffffffffffffffffffffffffff166113a1610ddc565b73ffffffffffffffffffffffffffffffffffffffff16146113f7576040517f08c379a00000000000000000000000000000000000000000000000000000000081526004016113ee906126aa565b60405180910390fd5b600073ffffffffffffffffffffffffffffffffffffffff168173ffffffffffffffffffffffffffffffffffffffff161415611467576040517f08c379a000000000000000000000000000000000000000000000000000000000815260040161145e9061264a565b60405180910390fd5b61147081611a80565b50565b600061147e82611930565b9050919050565b60007f01ffc9a7000000000000000000000000000000000000000000000000000000007bffffffffffffffffffffffffffffffffffffffffffffffffffffffff1916827bffffffffffffffffffffffffffffffffffffffffffffffffffffffff1916149050919050565b600033905090565b600080600560009054906101000a900473ffffffffffffffffffffffffffffffffffffffff1673ffffffffffffffffffffffffffffffffffffffff166370a08231846040518263ffffffff1660e01b81526004016115559190612538565b60206040518083038186803b15801561156d57600080fd5b505afa158015611581573d6000803e3d6000fd5b505050506040513d601f19601f820116820180604052508101906115a591906121d0565b905060008114156115ba5760009150506115c0565b60019150505b919050565b6000600654600b60008473ffffffffffffffffffffffffffffffffffffffff1673ffffffffffffffffffffffffffffffffffffffff1681526020019081526020016000205442611615919061286d565b10156116245760009050611629565b600190505b919050565b6116388282610e0b565b6116c75761165d8173ffffffffffffffffffffffffffffffffffffffff166014611bfe565b61166b8360001c6020611bfe565b60405160200161167c9291906124fe565b6040516020818303038152906040526040517f08c379a00000000000000000000000000000000000000000000000000000000081526004016116be91906125e8565b60405180910390fd5b5050565b6116d58282610e0b565b6117a85760016003600084815260200190815260200160002060000160008373ffffffffffffffffffffffffffffffffffffffff1673ffffffffffffffffffffffffffffffffffffffff16815260200190815260200160002060006101000a81548160ff02191690831515021790555061174d6114ef565b73ffffffffffffffffffffffffffffffffffffffff168173ffffffffffffffffffffffffffffffffffffffff16837f2f8788117e7eff1d82e926ec794901d17c78024a50270940304540a733656f0d60405160405180910390a45b5050565b6117b68282610e0b565b1561188a5760006003600084815260200190815260200160002060000160008373ffffffffffffffffffffffffffffffffffffffff1673ffffffffffffffffffffffffffffffffffffffff16815260200190815260200160002060006101000a81548160ff02191690831515021790555061182f6114ef565b73ffffffffffffffffffffffffffffffffffffffff168173ffffffffffffffffffffffffffffffffffffffff16837ff6391f5c32d9c69d2a47ea670b442974b53935d1edc7fd64eb21e047a839171b60405160405180910390a45b5050565b611896610cd4565b6118d5576040517f08c379a00000000000000000000000000000000000000000000000000000000081526004016118cc9061262a565b60405180910390fd5b6000600260006101000a81548160ff0219169083151502179055507f5db9ee0a495bf2e6ff9c91a7834c1ba4fdd244a5e8aa4e537bd38aeae4b073aa6119196114ef565b6040516119269190612538565b60405180910390a1565b600080600560009054906101000a900473ffffffffffffffffffffffffffffffffffffffff1673ffffffffffffffffffffffffffffffffffffffff166370a08231846040518263ffffffff1660e01b815260040161198e9190612538565b60206040518083038186803b1580156119a657600080fd5b505afa1580156119ba573d6000803e3d6000fd5b505050506040513d601f19601f820116820180604052508101906119de91906121d0565b9050670de0b6b3a76400008110611a61576000819050600954821115611a045760095490505b6000670de0b6b3a764000061271060085484611a209190612813565b611a2a91906127e2565b611a34919061278c565b9050670de0b6b3a764000060075482611a4d9190612813565b611a5791906127e2565b9350505050611a7b565b6000811115611a7557600754915050611a7b565b60009150505b919050565b60008060009054906101000a900473ffffffffffffffffffffffffffffffffffffffff169050816000806101000a81548173ffffffffffffffffffffffffffffffffffffffff021916908373ffffffffffffffffffffffffffffffffffffffff1602179055508173ffffffffffffffffffffffffffffffffffffffff168173ffffffffffffffffffffffffffffffffffffffff167f8be0079c531659141344cd1fd0a4f28419497f9722a3daafe3b4186f6b6457e060405160405180910390a35050565b611b4c610cd4565b15611b8c576040517f08c379a0000000000000000000000000000000000000000000000000000000008152600401611b839061268a565b60405180910390fd5b6001600260006101000a81548160ff0219169083151502179055507f62e78cea01bee320cd4e420270b5ea74000d11b0c9f74754ebdbfc544b05a258611bd06114ef565b604051611bdd9190612538565b60405180910390a1565b600082611bf48584611ef8565b1490509392505050565b606060006002836002611c119190612813565b611c1b919061278c565b67ffffffffffffffff811115611c5a577f4e487b7100000000000000000000000000000000000000000000000000000000600052604160045260246000fd5b6040519080825280601f01601f191660200182016040528015611c8c5781602001600182028036833780820191505090505b5090507f300000000000000000000000000000000000000000000000000000000000000081600081518110611cea577f4e487b7100000000000000000000000000000000000000000000000000000000600052603260045260246000fd5b60200101907effffffffffffffffffffffffffffffffffffffffffffffffffffffffffffff1916908160001a9053507f780000000000000000000000000000000000000000000000000000000000000081600181518110611d74577f4e487b7100000000000000000000000000000000000000000000000000000000600052603260045260246000fd5b60200101907effffffffffffffffffffffffffffffffffffffffffffffffffffffffffffff1916908160001a90535060006001846002611db49190612813565b611dbe919061278c565b90505b6001811115611eaa577f3031323334353637383961626364656600000000000000000000000000000000600f861660108110611e26577f4e487b7100000000000000000000000000000000000000000000000000000000600052603260045260246000fd5b1a60f81b828281518110611e63577f4e487b7100000000000000000000000000000000000000000000000000000000600052603260045260246000fd5b60200101907effffffffffffffffffffffffffffffffffffffffffffffffffffffffffffff1916908160001a905350600485901c945080611ea39061299a565b9050611dc1565b5060008414611eee576040517f08c379a0000000000000000000000000000000000000000000000000000000008152600401611ee59061260a565b60405180910390fd5b8091505092915050565b60008082905060005b8451811015611fc6576000858281518110611f45577f4e487b7100000000000000000000000000000000000000000000000000000000600052603260045260246000fd5b60200260200101519050808311611f86578281604051602001611f699291906124d2565b604051602081830303815290604052805190602001209250611fb2565b8083604051602001611f999291906124d2565b6040516020818303038152906040528051906020012092505b508080611fbe906129c4565b915050611f01565b508091505092915050565b600081359050611fe081612d45565b92915050565b60008083601f840112611ff857600080fd5b8235905067ffffffffffffffff81111561201157600080fd5b60208301915083602082028301111561202957600080fd5b9250929050565b60008135905061203f81612d5c565b92915050565b60008135905061205481612d73565b92915050565b60008135905061206981612d8a565b92915050565b60008151905061207e81612d8a565b92915050565b60006020828403121561209657600080fd5b60006120a484828501611fd1565b91505092915050565b600080600080606085870312156120c357600080fd5b60006120d187828801611fd1565b94505060206120e28782880161205a565b935050604085013567ffffffffffffffff8111156120ff57600080fd5b61210b87828801611fe6565b925092505092959194509250565b60006020828403121561212b57600080fd5b600061213984828501612030565b91505092915050565b6000806040838503121561215557600080fd5b600061216385828601612030565b925050602061217485828601611fd1565b9150509250929050565b60006020828403121561219057600080fd5b600061219e84828501612045565b91505092915050565b6000602082840312156121b957600080fd5b60006121c78482850161205a565b91505092915050565b6000602082840312156121e257600080fd5b60006121f08482850161206f565b91505092915050565b612202816128a1565b82525050565b612219612214826128a1565b612a0d565b82525050565b612228816128b3565b82525050565b612237816128bf565b82525050565b61224e612249826128bf565b612a1f565b82525050565b61225d8161291f565b82525050565b61226c81612943565b82525050565b600061227d82612765565b6122878185612770565b9350612297818560208601612967565b6122a081612aa3565b840191505092915050565b60006122b682612765565b6122c08185612781565b93506122d0818560208601612967565b80840191505092915050565b60006122e9602083612770565b91506122f482612ac1565b602082019050919050565b600061230c601483612770565b915061231782612aea565b602082019050919050565b600061232f602683612770565b915061233a82612b13565b604082019050919050565b6000612352601e83612770565b915061235d82612b62565b602082019050919050565b6000612375601083612770565b915061238082612b8b565b602082019050919050565b6000612398602083612770565b91506123a382612bb4565b602082019050919050565b60006123bb602483612770565b91506123c682612bdd565b604082019050919050565b60006123de602d83612770565b91506123e982612c2c565b604082019050919050565b6000612401601783612781565b915061240c82612c7b565b601782019050919050565b6000612424601f83612770565b915061242f82612ca4565b602082019050919050565b6000612447601183612781565b915061245282612ccd565b601182019050919050565b600061246a602f83612770565b915061247582612cf6565b604082019050919050565b61248981612915565b82525050565b6124a061249b82612915565b612a3b565b82525050565b60006124b28285612208565b6014820191506124c2828461248f565b6020820191508190509392505050565b60006124de828561223d565b6020820191506124ee828461223d565b6020820191508190509392505050565b6000612509826123f4565b915061251582856122ab565b91506125208261243a565b915061252c82846122ab565b91508190509392505050565b600060208201905061254d60008301846121f9565b92915050565b600060408201905061256860008301856121f9565b6125756020830184612480565b9392505050565b6000602082019050612591600083018461221f565b92915050565b60006020820190506125ac600083018461222e565b92915050565b60006020820190506125c76000830184612254565b92915050565b60006020820190506125e26000830184612263565b92915050565b600060208201905081810360008301526126028184612272565b905092915050565b60006020820190508181036000830152612623816122dc565b9050919050565b60006020820190508181036000830152612643816122ff565b9050919050565b6000602082019050818103600083015261266381612322565b9050919050565b6000602082019050818103600083015261268381612345565b9050919050565b600060208201905081810360008301526126a381612368565b9050919050565b600060208201905081810360008301526126c38161238b565b9050919050565b600060208201905081810360008301526126e3816123ae565b9050919050565b60006020820190508181036000830152612703816123d1565b9050919050565b6000602082019050818103600083015261272381612417565b9050919050565b600060208201905081810360008301526127438161245d565b9050919050565b600060208201905061275f6000830184612480565b92915050565b600081519050919050565b600082825260208201905092915050565b600081905092915050565b600061279782612915565b91506127a283612915565b9250827fffffffffffffffffffffffffffffffffffffffffffffffffffffffffffffffff038211156127d7576127d6612a45565b5b828201905092915050565b60006127ed82612915565b91506127f883612915565b92508261280857612807612a74565b5b828204905092915050565b600061281e82612915565b915061282983612915565b9250817fffffffffffffffffffffffffffffffffffffffffffffffffffffffffffffffff048311821515161561286257612861612a45565b5b828202905092915050565b600061287882612915565b915061288383612915565b92508282101561289657612895612a45565b5b828203905092915050565b60006128ac826128f5565b9050919050565b60008115159050919050565b6000819050919050565b60007fffffffff0000000000000000000000000000000000000000000000000000000082169050919050565b600073ffffffffffffffffffffffffffffffffffffffff82169050919050565b6000819050919050565b600061292a82612931565b9050919050565b600061293c826128f5565b9050919050565b600061294e82612955565b9050919050565b6000612960826128f5565b9050919050565b60005b8381101561298557808201518184015260208101905061296a565b83811115612994576000848401525b50505050565b60006129a582612915565b915060008214156129b9576129b8612a45565b5b600182039050919050565b60006129cf82612915565b91507fffffffffffffffffffffffffffffffffffffffffffffffffffffffffffffffff821415612a0257612a01612a45565b5b600182019050919050565b6000612a1882612a29565b9050919050565b6000819050919050565b6000612a3482612ab4565b9050919050565b6000819050919050565b7f4e487b7100000000000000000000000000000000000000000000000000000000600052601160045260246000fd5b7f4e487b7100000000000000000000000000000000000000000000000000000000600052601260045260246000fd5b6000601f19601f8301169050919050565b60008160601b9050919050565b7f537472696e67733a20686578206c656e67746820696e73756666696369656e74600082015250565b7f5061757361626c653a206e6f7420706175736564000000000000000000000000600082015250565b7f4f776e61626c653a206e6577206f776e657220697320746865207a65726f206160008201527f6464726573730000000000000000000000000000000000000000000000000000602082015250565b7f53656e646572206973206e6f7420616c6c69626c6520746f20636c61696d0000600082015250565b7f5061757361626c653a2070617573656400000000000000000000000000000000600082015250565b7f4f776e61626c653a2063616c6c6572206973206e6f7420746865206f776e6572600082015250565b7f5468652074696d65206265747765656e20636c61696d206973206e6f7420656e60008201527f6f75676800000000000000000000000000000000000000000000000000000000602082015250565b7f53656e6465722068617665206e6f74207374616b656420746f6b656e7320616e60008201527f64206e6f7420656c6967626c6500000000000000000000000000000000000000602082015250565b7f416363657373436f6e74726f6c3a206163636f756e7420000000000000000000600082015250565b7f5265656e7472616e637947756172643a207265656e7472616e742063616c6c00600082015250565b7f206973206d697373696e6720726f6c6520000000000000000000000000000000600082015250565b7f416363657373436f6e74726f6c3a2063616e206f6e6c792072656e6f756e636560008201527f20726f6c657320666f722073656c660000000000000000000000000000000000602082015250565b612d4e816128a1565b8114612d5957600080fd5b50565b612d65816128bf565b8114612d7057600080fd5b50565b612d7c816128c9565b8114612d8757600080fd5b50565b612d9381612915565b8114612d9e57600080fd5b5056fea26469706673582212200b805f7a24241a7c8b9b884c86b10190a4edee4ed4b9c2aa427d0c616d34a9ea64736f6c63430008040033",
  "devdoc": {
    "kind": "dev",
    "methods": {
      "getRoleAdmin(bytes32)": {
        "details": "Returns the admin role that controls `role`. See {grantRole} and {revokeRole}. To change a role's admin, use {_setRoleAdmin}."
      },
      "grantRole(bytes32,address)": {
        "details": "Grants `role` to `account`. If `account` had not been already granted `role`, emits a {RoleGranted} event. Requirements: - the caller must have ``role``'s admin role."
      },
      "hasRole(bytes32,address)": {
        "details": "Returns `true` if `account` has been granted `role`."
      },
      "owner()": {
        "details": "Returns the address of the current owner."
      },
      "paused()": {
        "details": "Returns true if the contract is paused, and false otherwise."
      },
      "renounceOwnership()": {
        "details": "Leaves the contract without owner. It will not be possible to call `onlyOwner` functions anymore. Can only be called by the current owner. NOTE: Renouncing ownership will leave the contract without an owner, thereby removing any functionality that is only available to the owner."
      },
      "renounceRole(bytes32,address)": {
        "details": "Revokes `role` from the calling account. Roles are often managed via {grantRole} and {revokeRole}: this function's purpose is to provide a mechanism for accounts to lose their privileges if they are compromised (such as when a trusted device is misplaced). If the calling account had been revoked `role`, emits a {RoleRevoked} event. Requirements: - the caller must be `account`."
      },
      "revokeRole(bytes32,address)": {
        "details": "Revokes `role` from `account`. If `account` had been granted `role`, emits a {RoleRevoked} event. Requirements: - the caller must have ``role``'s admin role."
      },
      "supportsInterface(bytes4)": {
        "details": "See {IERC165-supportsInterface}."
      },
      "transferOwnership(address)": {
        "details": "Transfers ownership of the contract to a new account (`newOwner`). Can only be called by the current owner."
      }
    },
    "version": 1
  },
  "userdoc": {
    "kind": "user",
    "methods": {},
    "version": 1
  },
  "storageLayout": {
    "storage": [
      {
        "astId": 539,
        "contract": "contracts/Rewards.sol:Rewards",
        "label": "_owner",
        "offset": 0,
        "slot": "0",
        "type": "t_address"
      },
      {
        "astId": 739,
        "contract": "contracts/Rewards.sol:Rewards",
        "label": "_status",
        "offset": 0,
        "slot": "1",
        "type": "t_uint256"
      },
      {
        "astId": 654,
        "contract": "contracts/Rewards.sol:Rewards",
        "label": "_paused",
        "offset": 0,
        "slot": "2",
        "type": "t_bool"
      },
      {
        "astId": 24,
        "contract": "contracts/Rewards.sol:Rewards",
        "label": "_roles",
        "offset": 0,
        "slot": "3",
        "type": "t_mapping(t_bytes32,t_struct(RoleData)19_storage)"
      },
      {
        "astId": 3627,
        "contract": "contracts/Rewards.sol:Rewards",
        "label": "rewardsToken",
        "offset": 0,
        "slot": "4",
        "type": "t_contract(IERC20Mintable)3606"
      },
      {
        "astId": 3630,
        "contract": "contracts/Rewards.sol:Rewards",
        "label": "stakingToken",
        "offset": 0,
        "slot": "5",
        "type": "t_contract(IERC20)1392"
      },
      {
        "astId": 3644,
        "contract": "contracts/Rewards.sol:Rewards",
        "label": "claimInterval",
        "offset": 0,
        "slot": "6",
        "type": "t_uint256"
      },
      {
        "astId": 3649,
        "contract": "contracts/Rewards.sol:Rewards",
        "label": "claimAmount",
        "offset": 0,
        "slot": "7",
        "type": "t_uint256"
      },
      {
        "astId": 3652,
        "contract": "contracts/Rewards.sol:Rewards",
        "label": "claimBonusNumerator",
        "offset": 0,
        "slot": "8",
        "type": "t_uint256"
      },
      {
        "astId": 3657,
        "contract": "contracts/Rewards.sol:Rewards",
        "label": "claimBonusCeiling",
        "offset": 0,
        "slot": "9",
        "type": "t_uint256"
      },
      {
        "astId": 3663,
        "contract": "contracts/Rewards.sol:Rewards",
        "label": "hasInitialClaimed",
        "offset": 0,
        "slot": "10",
        "type": "t_mapping(t_address,t_bool)"
      },
      {
        "astId": 3667,
        "contract": "contracts/Rewards.sol:Rewards",
        "label": "lastClaimed",
        "offset": 0,
        "slot": "11",
        "type": "t_mapping(t_address,t_uint256)"
      }
    ],
    "types": {
      "t_address": {
        "encoding": "inplace",
        "label": "address",
        "numberOfBytes": "20"
      },
      "t_bool": {
        "encoding": "inplace",
        "label": "bool",
        "numberOfBytes": "1"
      },
      "t_bytes32": {
        "encoding": "inplace",
        "label": "bytes32",
        "numberOfBytes": "32"
      },
      "t_contract(IERC20)1392": {
        "encoding": "inplace",
        "label": "contract IERC20",
        "numberOfBytes": "20"
      },
      "t_contract(IERC20Mintable)3606": {
        "encoding": "inplace",
        "label": "contract IERC20Mintable",
        "numberOfBytes": "20"
      },
      "t_mapping(t_address,t_bool)": {
        "encoding": "mapping",
        "key": "t_address",
        "label": "mapping(address => bool)",
        "numberOfBytes": "32",
        "value": "t_bool"
      },
      "t_mapping(t_address,t_uint256)": {
        "encoding": "mapping",
        "key": "t_address",
        "label": "mapping(address => uint256)",
        "numberOfBytes": "32",
        "value": "t_uint256"
      },
      "t_mapping(t_bytes32,t_struct(RoleData)19_storage)": {
        "encoding": "mapping",
        "key": "t_bytes32",
        "label": "mapping(bytes32 => struct AccessControl.RoleData)",
        "numberOfBytes": "32",
        "value": "t_struct(RoleData)19_storage"
      },
      "t_struct(RoleData)19_storage": {
        "encoding": "inplace",
        "label": "struct AccessControl.RoleData",
        "members": [
          {
            "astId": 16,
            "contract": "contracts/Rewards.sol:Rewards",
            "label": "members",
            "offset": 0,
            "slot": "0",
            "type": "t_mapping(t_address,t_bool)"
          },
          {
            "astId": 18,
            "contract": "contracts/Rewards.sol:Rewards",
            "label": "adminRole",
            "offset": 0,
            "slot": "1",
            "type": "t_bytes32"
          }
        ],
        "numberOfBytes": "64"
      },
      "t_uint256": {
        "encoding": "inplace",
        "label": "uint256",
        "numberOfBytes": "32"
      }
    }
  }
}